:400000000080002011000000ED0B0000ED0B000008B5044B1A6803F53F5302331A6000F005FE00BFFA46004010B5054C237833B9044B13B10448AFF300800123237010BD84
:400040009081FF1F0000000064490000084B10B51BB108490848AFF300800848036803B910BD074B002BFBD0BDE81040184700BF000000009481FF1F64490000C880FF1F18
:40008000000000002DE9F04FADF55F7D62B64FF4FF7200215EA802F032FC002001F0F0F8012001F013F9322001F05CFA012001F001F9322001F056FA012001F06FF8322040
:4000C00001F050FA012001F0E9F8322001F04AFA002001F0FBF8322001F044FA002001F0E9F8322001F03EFA002001F057F8322001F038FA002001F0D1F8322001F032FA3B
:40010000642001F02FFA012001F0E0F8012001F0D1F8012001F0C2F8012001F03FF8642001F020FA002001F0D1F8002001F0C2F8002001F0B3F8002001F030F801F076FBBC
:4001400001F082FB00F09EFF00F0B0FF01F0AAFA01F084F801F0E8FBB24800F039FAB24BB24AB3491EA803F043F81EA800F030FA1AAB00931BAB1CAA1DA9002000F08CFAE9
:4001800001F084F898B9AB4800F022FA00231C4607E0FA2001F0E6F9C4F10104E0B201F089F801F073F80028F3D0139401E000231393A14800F00CFAA04800F009FA0023F9
:4001C0001293012217921592149316939846002211920F9299460E930D931C469A46002747F6FF761894CDF82090CDF828A0A946119DDA46CDF86480DDF85080DDF854B086
:40020000179C62E0002001F061F8012001F052F801F082FB012824D19CB1894800F0D8F900244FF0010B0CE0002001F015FB01F025FB864202DC874202DB02E0064600E0B1
:40024000074601F069FB0128EED0BB1B00D50733C3F3CF039A190FFA82F9FB1A0FFA83FA31E0BBF1000F05D0764800F0B1F901244FF0000B002000F021FF00F037FF00F008
:4002800077FF054610904FF07A5102F083F880460F904FF07A51284602F07AF80546404600F0B8F90D90284600F0B4F90E901B9A1A99404600F0C8F90A901B9A1A9928465E
:4002C00000F0C2F908904FF0010800F0DFFF012898D011954D46DDF820904346CDF85080DDF86480CDF854B0D346DDF828A01794189C002B6CD0384601F0DAFA14903046DD
:4003000001F0D6FA1590284601F0D2FA1890584601F0CEFA19904C4800F05AF9119801F01DFDCDE908010F9801F018FDCDE90A01109801F013FDDDE90A23CDE90423DDE98D
:400340000823CDE902230D9B01930E9B009302460B463E490DF1780E704602F049FF1EAB184600F035F9DDE90812CDE90212DDE90A23CDE900234B46524635490DF1780E85
:40038000704602F035FF1EAB184600F021F9199801F0E4FCCDE90601189801F0DFFCCDE90401159801F0DAFCCDE90201149801F0D5FCCDE9000133463A4626491EA802F048
:4003C00017FF1EA800F004F90123159300231493012000F07BFF002000F06CFF002000F06DFE00F083FE06460D9B834203DC0E9B834280F2BA8001F0C9FA012841D1304695
:4004000000F0B6FE01F0AAFC02460B4612491EA802F0EEFE1EA800F0DBF8169FDDF84C8027E000BF6849000098490000A4490000B0490000C8490000F84900003C4A0000F4
:40044000804A0000B84A0000DC4A0000F44A0000304B0000744B0000B44B0000584B9F4206DDC8F101085FFA88F000F017FF0027013701F08BFA0128F0D01697CDF84C8017
:400480000DE0304600F074FE01F068FC02460B464C491EA802F0ACFE1EA800F099F8002000F014FF012000F0F9FE012312934FF00008304659E0012000F0E2FECAF3072389
:4004C0000893184601F0B6F85FFA8AF30A93184600F08CFE564600273C4634E05FB1834509DA002000F0CCFE002000F0E7FD00F0FDFD3AE00127B1451CDC089801F09AF8FA
:400500000A9800F073FE08F10108B8F1140F0ED1012000F043FE14222B491EA802F068FE1EA800F055F8564600273C4602E0564600273C46012001F02BF8013424B2FF2C17
:4005400000DD00240136C6F3072001F073F8F0B200F04CFE002001F07FF901F08FF95EAB23F814008542C5DCB8E70D9B8342A2DC0E9B83429FDB129B002B3FF430AE00F03E
:40058000F7FD01F0EBFB02460B4610491EA802F02FFE1EA800F01CF8CDF800B02B462246FF215EA800F01AF8012000F08FFE002000F074FE002000F0F1FD002312930EE67F
:4005C000DF930400084C0000544C0000884C000008B501F0ABF901F0D1F908BD70B5C2B006460D4646990091094902A802F000FE02A801F09BF9002404E036F8140001F0EF
:40060000B3F90134AC42F8DB01F0B8F942B070BDB44C000010B50446084B186801F06EFF214601F0BFFF0446054B186801F066FF214601F0AFFE02F005F910BDC481FF1F6C
:40064000B481FF1F00000000F8B50746C2F50046084601F083FB02460B460DA1D1E9000101F0FAFC04460D46384601F077FB22462B4601F0C7FB04460D46304601F05CFB25
:4006800022462B4601F00AFA01F056FEF8BD00BF00000000E0FFEF402DE9F04FCBB083468A4691461E46549D7B4801F0F9F84FF4FE6001F0EFF8012400F024FE012817D1AA
:4006C0001C23CAF8003046F60C7000F045FD734800F048FD40F25F13C9F8003040F2532333606F4B2B606F48FFF772FF012700E0002700F0FFFD012816D11623CAF8003066
:4007000046F6A81000F028FD674800F02BFD40F2BF13C9F8003040F24C433360634B2B606348FFF755FF013700F0DCFD012816D10823CAF8003046F6D44000F00DFD5D4855
:4007400000F010FD40F2CD43C9F800304FF4E1733360594B2B605948FFF73AFF01375FB95748FFF735FFE0B200F018FDC4F10104FA2000F0F7FEF6E7012F0BDD5148FFF733
:4007800027FFE0B200F00AFDC4F10104FA2000F0E9FEF6E7326829684FF07E50FFF754FF0746C0F3072000F045FFF8B200F01EFDBBF1000F6DD0E7B2384600F087FD384670
:4007C00000F0ECFCC7F10107FFB2384600F072FD384600F063FDC4F10104002000F06EFC00F084FC074600F0C3FC0690002001F033F801F043F8804601F05AF80990069827
:4008000001F0ACFACDE90601CDF81080099801F0A5FACDE902010097DDE906232A490AA802F0E6FC0AA8FFF7D3FE012000F028FD00F02CFD38B92548FFF7CAFE4FF000087B
:400840004FF6FF7722E0D5F80080336806931A4641460020FFF7F8FE0746069A41464FF07E50FFF7F1FE804603463A4618490AA802F0BEFC0AA8FFF7ABFE07E0F8B200F0C1
:40088000B5FCC7F3072000F0D5FE013F4745F5DA12E74BB0BDE8F08F08F1FFFF6AF8FFFF8E06E241C44C0000AAF6FFFF6D56A541E84C00003DE6FFFF7460F4400C4D000015
:4008C000304D00007C4D0000CC4D00000C4E0000504E0000FEE700BFF0B40022174611E050F82760F3B226F0FF0608E001EB420511F812406D78A5550132013BDBB2002BDE
:40090000F4D10137152FEBD9F0BC704708B50A46002101F0F4FF08BDF8B51B4B1B78DBB21A4E3478E4B21A4F3D78EDB203F00701184A11701B090132137044F00303337049
:4009400045F003033B704FF42462134B1A80022231331A70802203F2C4731A70012103F5C173197020230D490B7068310B7020310A700B4A13700A2000F00AFE3D70347051
:400980004422084B1A70F8BDCF010049F8460040F94600406E5800400C510040985A0040235B00407658004008B501F09DFF08BD38B500242C4B1C80502202331A700822FA
:4009C0002A492B48FFF7F0FF02222A4B1A7008224FF040231A70032103F500731970264B1B78DBB225490B70254B1A8041F25122023B1A8019250CE0224B1B7803F0010379
:400A000043EA440404F003044FF4F07000F0C8FF013D0DB1032CEFD115B90320FFF75AFF194B4FF480721A8007221A70002217490A704820023108701A700222033B1A7056
:400A400004220A331A70124A137843F001031370013A137843F003031370013A137843F08003137038BD00BF80400040DC000048004100400043004008010049A146004012
:400A800022420040254200400440004006400040A2430040012807D8044B53F820201844017A13780B431370704700BF904E0000012808D8044B53F820201844017A13780E
:400AC00023EA010313707047904E000070B572B6324A137843F00403137000240BE0304863001A19510001440A46098AD068FFF70DFF0134E4B2082CF1D92A494FF09040A1
:400B0000FFF7EAFE0A26284B1E70012503F521731D70264A137843F0020313701032137843F002031370224C237843F040032370A2F58632513A137843F0100313700822BF
:400B40001C491D48FFF730FF08221C491C48FFF72BFF32461B491C48FFF726FF08221B491B48FFF721FF08221A491B48FFF71CFF1A4A137843F008031370194E61233370D2
:400B8000FFF716FF81233370164B1D70FFF7C4FE0E2221461448FFF707FF70BDE8460040904E0000580000488358004003500140A0430040B000004802510040B8000048D8
:400BC00012510040C000004820510040CC00004832510040D400004852510040224300400048004004000840B043004008B501F04FFE03680C2B00D1FEE7FEE708B5094BCE
:400C00001A681044084BC31AB3F5007F02DC054B186005E001F03CFE0C2303604FF0FF32104608BDCC80FF1FD881FF1F08B5104E104D16E029686B68AC68002204E051F89E
:400C4000040B43F8040B0432A242F8D1E868002203E0002143F8041B04328242F9D11035013E002EE6D101F019FEFFF70BFAFEE7010000006850000008B5104A104B1A60AE
:400C8000104A136843F40073136000230AE0032B03D80D4A52F8231000E00C490C4A42F8231001332F2BF2D90A4B1A780A4B1A70074A0A4B1A60FFF709FF08BD0004FA055B
:400CC0000CED00E014ED00E000000000ED0B00000080FF1FBC760040C080FF1F08ED00E010B59DF80840012C51D1013809282ED8DFE800F0052D2D052D2D0F192D230F2B77
:400D000003D92548007840B222E02448007840B21EE00F2B03D92248007840B218E02148007840B214E00F2B03D91F48007840B20EE01E48007840B20AE00F2B03D91C4878
:400D4000007840B204E01B48007840B200E0002001EB401101FB02F1C90B8AB20D2B0BD8C3F10E0289B211418AB2611E124800EB810101338B7005E0631E0F4901EB8303CF
:400D80000F219970013C0C4B23F8242010BD002000F0E6FB10BD00BF180100491C010049190100491D0100491A0100491E0100491B0100491F010049AC81FF1FF8B507464C
:400DC00000F0F6FD06460D4D2B7843F003032B700B4C237843F0030323700A4B1F70032000F0D6FB2B7803F0FC032B70237803F0FC032370304600F0DFFDF8BDF8460040A8
:400E0000F9460040925800400022324B1A7101285ED170B53822304B1A70042202331A70062201331A70002401331C7001331C703F2201331A7002331C7001331C700133C0
:400E40001C7001250A331D70502203F527631A70072201331A70292201331A7001331C70552203331A705A2201331A7001331C7002331C7001331C700A2201331A704322C7
:400E800001331A704420FFF799FF5822134B1A7001331C70052605331E70022201331A7001331C7001331C70204600F043FA42F6AB120B4B1A602946304600F05FFA294618
:400EC000862000F0DFFA07491D2000F06BFB70BD704700BFAC81FF1F004E004094580040C481FF1F99110000F0B583B0284D01272F70284E00247471102000F02DFA1020E1
:400F000000F0AEFA07211D2000F060FB0422224B1A7001331C7007331C70204A137843F0180313701E4B1C7003F2F5231C7001331C700A22A3F209331A7001331C70023336
:400F40001C705B2205331A705E2201331A7004331C701422A3F68C231A70009710234FF4004247F602710320FFF7BAFE2B78013B06EB83039A780B4B1A702B78013B36F878
:400F80002320094B1A802878FFF73EFF03B0F0BDD080FF1FAC81FF1F96580040075B0040935800400E4E00400C4E004070B500F0FFFC06462A4B1B782A4B1A7842F0010243
:400FC0001A701A7842F010021A7010331A7842F001021A701A7842F010021A70224D2B7843F002032B70214C237843F0020323701F4A137843F003031370032000F0C8FAD6
:401000002B7803F0FD032B70237803F0FD032370184A137843F0060313707A22164B1A70164A137843F0020313701032137843F0020313700F3A137843F00103137010322D
:40104000137843F0010313704FF000530C4A1360A2F5C0721360304600F0AEFC70BD00BFD080FF1FAA430040F8460040F9460040915800407758004082580040A14300408A
:4010800080E200E008B5084B9B794BB9064BDB7913F0FF0F01D1FFF727FF0122024B9A71FFF784FF08BD00BFAC81FF1F024A137843F0010313707047004E0040094B1B79A1
:4010C00013F0FF0F03D0074B5B79DBB203E0064B1B7803F00103012B01D00028EED01846704700BFAC81FF1F014E0040154B1B7803F00303012B07D8134B1888023B1B8835
:401100009BB243EA004013E0022B0AD10E4B1888023B1B7843EA00430C4A107843EA002006E00B4B188883B2074A108843EA0040084B1B7913F0FF0F02D00022054B5A7128
:40114000704700BF144E0040124E0040114E0040104E0040AC81FF1F014B9860704700BFAC81FF1F014B1860704700BFC481FF1F10B5074B9B68C01A01F0C0F90446054B55
:40118000186801F0BBF90146204601F0BFFA10BDAC81FF1FC481FF1F704700BF044A137803F0FD03400000F0020018431070704750510040054A137843F008031370103274
:4011C000137843F008031370704700BFA8430040054B1A7802F0FD021A701A7800F0020010431870704700BF2C580040014B1870704700BF835B0040064B1B78C3F3810386
:4012000003F19243063393F83831DBB2024A1370704700BF2C5800400B46004008B5064B1A7802F0F3021A701A7800F00C0010431870FFF7E1FF08BD2C58004008B50023D8
:40124000054A1370013213700420FFF7E7FF0220FFF7BEFF08BD00BF2C58004008B5074B1B7823B9FFF7EAFF0122044B1A70FFF7A1FF6420FFF7BAFF08BD00BFB881FF1FCC
:40128000014B1870704700BF72640040024B1878C0F38000704700BF51510040044A137803F0F703C00000F0080018431070704750510040044A137803F0DF03400100F096
:4012C000200018431070704750510040044A137803F07F03C001C0B218431070704700BF50510040024B1878C0F30010704700BF01510040024B1878C0F38000704700BF7A
:4013000001510040024B187800F00100704700BF0151004010B5002404E02046FFF7C8FB0134E4B2012CF8D9FF22014B1A7010BDD180FF1F10B50446FFF7ECFF2046FFF711
:40134000A9FB014B1C7010BDD180FF1F014B188880B2704780400040034B1A7800F0F80010431870704700BF82400040024B187800F00700704700BF8240004070B5054609
:401380000E46FFF7F3FF0446FFF7E0FFA84256D02B4B1B7803F0010294B900B185B938B9284B1D80284A137803F0BF03137070BD254A137843F040031370224B1D8070BDFA
:4013C00022B3002321490B7001240F310C7004310B700C390B7803F07F030B701A4B1B7813F0080F00D08DB9194B18800721013B1970164B1B7813F0010FFAD110490B7808
:4014000003F0FE030B700021104B19700C4B1B7813F0010F0DD00E4B1D800EB1032200E001220A4B1A70094B1B7813F0010FFAD170BD044B1D8002490B7813430B7070BDF8
:40144000A243004080400040824000400140004002400040014B188880B2704704410040034B1A7800F0F80010431870704700BF06410040024B187800F00700704700BFFE
:401480000641004070B504460D46FFF7F3FF0646FFF7E0FFA04257D02C4B1B7803F00203DAB296B900B184B938B9294B1C80294A137803F0BF03137070BD264A137843F074
:4014C00040031370224B1C8070BD22B3002322490B70022613310E7004390B7008390B7803F07F030B701B4B1B7813F0080F00D08CB91A4B18800721013B1970164B1B78B6
:4015000013F0010FFAD111490B7803F0FD030B700021114B19700D4B1B7813F0020F0DD00E4B1C800DB1032200E001220A4B1A70094B1B7813F0010FFAD170BD044B1C8009
:4015400002490B7813430B7070BD00BFA14300400441004006410040014000400240004001BE704710B5044605E0084B186800F017FAA4F50044B4F5004FF6D8034B5868BE
:4015800000FB04F000F00CFA10BD00BFD480FF1F08B5034B1B7A00FB03F000F001FA08BDD480FF1F70B504460E46074B1D681F2802D90020FFF7D4FF04F01F04103455F84B
:4015C000240045F8246070BD08ED00E038B504460D46072902D90020FFF7C2FF1F2C02D90020FFF7BDFF04F01F0000F1604000F564406D01EDB2057038BD00BF054A137853
:4016000043F0010313701032137843F001031370704700BFA8430040054B1A7802F0FD021A701A7800F0020010431870704700BF20580040014B1870704700BF805B004079
:40164000064B1B78C3F3810303F19243063393F82031DBB2024A1370704700BF205800400846004008B5064B1A7802F0F3021A701A7800F00C0010431870FFF7E1FF08BD41
:401680002058004010B50024054B1C7001331C700420FFF7E7FF2046FFF7BEFF10BD00BF2058004008B5074B1B7823B9FFF7EAFF0122044B1A70FFF7A1FFFF20FFF7BAFFD3
:4016C00008BD00BFB981FF1F08B50A280FD00C2802D0082806D102E04FF4805209E04FF4807206E00020FFF73BFF002201E04FF480620021084B198042F2107303FB02F309
:4017000013F5806301D503F2FF73DB12034A13600022034B1A8008BDD281FF1FCC81FF1FC881FF1F10B500F043F904461E4A137843F0010313701032137843F00103137053
:401740001A3A137843F0010313701032137843F00103137002F5AA521232137843F0030313701822114B1A70013B1A7842F040021A701A7802F0FC021A70C822053B1A701F
:401780000222A3F597530C3B1A70094A137843F0080313700A20FFF7FBFE0122054B1A60204600F009F910BDAB43004006590040275B004080E200E010B504460A280DD0F9
:4017C0000C2802D0082804D101E0C22207E0422205E00020FFF7C4FEC22200E08222034B1A702046FFF770FF10BD00BF0259004008B5102000F086F807210020FFF7E6FE62
:4018000007490020FFF7CEFE064A137843F0060313700C20FFF7D0FF0022034B1A8008BD0119000001590040D081FF1F08B5054B1B7823B9FFF7DCFF0122024B1A70FFF7BC
:4018400071FF08BDBA81FF1F024A137843F00103137070470059004010B5074B1B7813F0010401D10028F8D024B10120FFF790FE014B1B78204610BD01590040034B188871
:4018800080B2034B1B88C01A00B27047A05B0040C881FF1F014B1880704700BFD081FF1F00EB80004300014A13607047CC81FF1F38B50F4B1B881BB233B10D4B1B881BB266
:4018C00003EB83035C0001E00A4B1C680A4B1B88C01A00B200F012FE084900F063FE0546204600F00BFE0146284600F00FFF38BDD281FF1FCC81FF1FD081FF1F000020413A
:40190000704700BF034B1A7800F0F80010431870704700BF02410040024B1878C0F30010704700BF51510040704700BF38B505460078012404E000F043F8285D0134E4B2F3
:401940000028F8D138BD00BF38B504460309054DE85C00F035F804F00F04285D00F030F838BD00BFD44E000010B50446000AFFF7EBFFE0B2FFF7E8FF10BD00BF08B50D2074
:4019800000F01EF80A2000F01BF808BD024B187800F00100704700BF31510040000000000230800803D000BF01380046FCD17047EFF3108072B6704780F31088704700BF08
:4019C000FEB5494652465B460EB40746244909688A46244A12682448022100F047F8030020480068C018204900F040F8143883460121C9430C4601250026FFF7D9FF814657
:401A000051460B7823400B7058460130FFF7C8FF3800F04028400B78234003430B705846FFF7BEFF0136072EF2D9002001300138013001200B78234003430B7058460430CE
:401A4000FFF7AEFF4846FFF7B7FF00BF00BF00BF0EBC894692469B46FEBD00BFAFF30080E480FF1FE080FF1F00C20100002902D0B0FBF1F0704708B14FF0FF3000F008B886
:401A80000029F8D00246B0FBF1F000FB11217047704700BF81F0004102E000BF83F0004330B54FEA41044FEA430594EA050F08BF90EA020F1FBF54EA000C55EA020C7FEA58
:401AC000645C7FEA655C00F0E2804FEA5454D4EB5555B8BF6D420CDD2C4480EA020281EA030382EA000083EA010180EA020281EA0303362D88BF30BD11F0004F4FEA0131F6
:401B00004FF4801C4CEA113102D0404261EB410113F0004F4FEA03334CEA133302D0524263EB430394EA050F00F0A780A4F10104D5F1200E0DDB02FA0EFC22FA05F2801865
:401B400041F1000103FA0EF2801843FA05F359410EE0A5F120050EF1200E012A03FA0EFC28BF4CF0020C43FA05F3C01851EBE37101F0004507D54FF0000EDCF1000C7EEB57
:401B800000006EEB0101B1F5801F1BD3B1F5001F0CD349085FEA30004FEA3C0C04F101044FEA445212F5800F80F09A80BCF1004F08BF5FEA500C50F1000041EB045141EA6A
:401BC000050130BD5FEA4C0C404141EB010111F4801FA4F10104E9D191F0000F04BF01460020B1FA81F308BF2033A3F10B03B3F120020CDA0C3208DD02F1140CC2F10C0272
:401C000001FA0CF021FA02F10CE002F11402D8BFC2F1200C01FA02F120FA0CFCDCBF41EA0C019040E41AA2BF01EB0451294330BD6FEA04041F3C1CDA0C340EDC04F114049F
:401C4000C4F1200220FA04F001FA02F340EA030021FA04F345EA030130BDC4F10C04C4F1200220FA02F001FA04F340EA0300294630BD21FA04F0294630BD94F0000F83F498
:401C8000801306BF81F480110134013D4EE77FEA645C18BF7FEA655C29D094EA050F08BF90EA020F05D054EA000C04BF1946104630BD91EA030F1EBF0021002030BD5FEAB2
:401CC000545C05D14000494128BF41F0004130BD14F580043CBF01F5801130BD01F0004545F0FE4141F470014FF0000030BD7FEA645C1ABF194610467FEA655C1CBF0B46C9
:401D0000024650EA013406BF52EA033591EA030F41F4002130BD00BF90F0000F04BF0021704730B54FF4806404F132044FF000054FF0000150E700BF90F0000F04BF0021D6
:401D4000704730B54FF4806404F1320410F0004548BF40424FF000013EE700BF42004FEAE2014FEA31014FEA02701FBF12F07F4393F07F4F81F06051704792F0000F14BFDF
:401D800093F07F4F704730B54FF4607401F0004521F0004120E700BF50EA010208BF704730B54FF000050AE050EA010208BF704730B511F0004502D5404261EB41014FF4F3
:401DC000806404F132045FEA915C3FF4DCAE4FF003025FEADC0C18BF03325FEADC0C18BF033202EBDC02C2F1200300FA03FC20FA02F001FA03FE40EA0E0021FA02F11444E3
:401E0000C1E600BF70B54FF0FF0C4CF4E06C1CEA11541DBF1CEA135594EA0C0F95EA0C0F00F0DEF82C4481EA030621EA4C5123EA4C5350EA013518BF52EA033541F48011DA
:401E400043F4801338D0A0FB02CE4FF00005E1FB02E506F00042E0FB03E54FF00006E1FB03569CF0000F18BF4EF0010EA4F1FF04B6F5007F64F5407404D25FEA4E0E6D41F2
:401E800046EB060642EAC62141EA55514FEAC52040EA5E504FEACE2EB4F1FD0C88BFBCF5E06F1ED8BEF1004F08BF5FEA500E50F1000041EB045170BD06F0004646EA010122
:401EC00040EA020081EA0301B4EB5C04C2BFD4EB0C0541EA045170BD41F480114FF0000E013C00F3AB8014F1360FDEBF002001F0004170BDC4F10004203C35DA0C341BDC1B
:401F000004F11404C4F1200500FA05F320FA04F001FA05F240EA020001F0004221F0004110EBD37021FA04F642EB06015EEA430E08BF20EAD37070BDC4F10C04C4F1200517
:401F400000FA04F320FA05F001FA04F240EA020001F0004110EBD37041F100015EEA430E08BF20EAD37070BDC4F1200500FA05F24EEA020E20FA04F301FA05F243EA02037F
:401F800021FA04F001F0004121FA04F220EA020000EBD3705EEA430E08BF20EAD37070BD94F0000F0FD101F00046400041EB010111F4801F08BF013CF7D041EA060195F07D
:401FC000000F18BF704703F00046520043EB030313F4801F08BF013DF7D043EA0603704794EA0C0F0CEA135518BF95EA0C0F0CD050EA410618BF52EA4306D1D181EA0301F4
:4020000001F000414FF0000070BD50EA410606BF1046194652EA430619D094EA0C0F02D150EA013613D195EA0C0F05D152EA03361CBF104619460AD181EA030101F00041E7
:4020400041F0FE4141F470014FF0000070BD41F0FE4141F4780170BD70B54FF0FF0C4CF4E06C1CEA11541DBF1CEA135594EA0C0F95EA0C0F00F0A7F8A4EB050481EA030E0D
:4020800052EA03354FEA013100F088804FEA03334FF0805545EA131343EA12634FEA022245EA111545EA10654FEA00260EF000419D4208BF964244F1FD0404F5407402D2A6
:4020C0005B084FEA3202B61A65EB03055B084FEA32024FF480104FF4002CB6EB020E75EB030E22BFB61A754640EA0C005B084FEA3202B6EB020E75EB030E22BFB61A7546B4
:4021000040EA5C005B084FEA3202B6EB020E75EB030E22BFB61A754640EA9C005B084FEA3202B6EB020E75EB030E22BFB61A754640EADC0055EA060E18D04FEA051545EAD4
:4021400016754FEA06164FEAC30343EA52734FEAC2025FEA1C1CC0D111F4801F0BD141EA00014FF000004FF0004CB6E711F4801F04BF01430020B4F1FD0C88BFBCF5E06FAC
:402180003FF6AFAEB5EB030C04BFB6EB020C5FEA500C50F1000041EB045170BD0EF0004E4EEA113114EB5C04C2BFD4EB0C0541EA045170BD41F480114FF0000E013C90E6EF
:4021C00045EA060E8DE60CEA135594EA0C0F08BF95EA0C0F3FF43BAF94EA0C0F0AD150EA01347FF434AF95EA0C0F7FF425AF104619462CE795EA0C0F06D152EA03353FF4BA
:40220000FDAE1046194622E750EA410618BF52EA43067FF4C5AE50EA41047FF40DAF52EA43057FF4EBAE12E74FF0FF3C06E000BF4FF0010C02E000BF4FF0010C4DF804CDCD
:402240004FEA410C7FEA6C5C4FEA430C18BF7FEA6C5C1BD001B050EA410C0CBF52EA430C91EA030F02BF90EA020F0020704710F1000F91EA030F58BF994208BF90422CBFDB
:40228000D8176FEAE37040F0010070474FEA410C7FEA6C5C02D150EA013C07D14FEA430C7FEA6C5CD6D152EA033CD3D05DF8040B704700BF8446104662468C4619466346C8
:4022C00000E000BF01B5FFF7B7FF002848BF10F1000F01BD4DF808EDFFF7F4FF0CBF012000205DF808FB00BF4DF808EDFFF7EAFF34BF012000205DF808FB00BF4DF808EDFC
:40230000FFF7E0FF94BF012000205DF808FB00BF4DF808EDFFF7CEFF94BF012000205DF808FB00BF4DF808EDFFF7C4FF34BF012000205DF808FB00BF4FEA410212F50012A2
:4023400015D211D56FF47873B3EB625212D94FEAC12343F0004343EA505311F0004F23FA02F018BF404270474FF00000704750EA013005D111F0004008BF6FF0004070479E
:402380004FF00000704700BF80F0004002E000BF81F0004142001FBF5FEA410392EA030F7FEA226C7FEA236C6AD04FEA1262D2EB1363C1BFD218414048404140B8BF5B4219
:4023C000192B88BF704710F0004F40F4000020F07F4018BF404211F0004F41F4000121F07F4118BF494292EA030F3FD0A2F1010241FA03FC10EB0C00C3F1200301FA03F1FD
:4024000000F0004302D5494260EB4000B0F5000F13D3B0F1807F06D340084FEA310102F10102FE2A51D2B1F1004F40EBC25008BF20F0010040EA03007047490040EB000017
:4024400010F4000FA2F10102EDD1B0FA80FCACF1080CB2EB0C0200FA0CF0AABF00EBC25052421843BCBFD0401843704792F0000F81F4000106BF80F400000132013BB5E740
:402480004FEA41037FEA226C18BF7FEA236C21D092EA030F04D092F0000F08BF0846704790EA010F1CBF0020704712F07F4F04D1400028BF40F00040704712F100723CBF8A
:4024C00000F50000704700F0004343F0FE4040F4000070477FEA226216BF08467FEA23630146420206BF5FEA412390EA010F40F4800070474FF0000304E000BF10F0004388
:4025000048BF40425FEA000C08BF704743F0964301464FF000001CE050EA010208BF70474FF000030AE000BF50EA010208BF704711F0004302D5404261EB41015FEA010CCF
:4025400002BF84460146002043F0B64308BFA3F18053A3F50003BCFA8CF2083AA3EBC25310DB01FA02FC634400FA02FCC2F12002BCF1004F20FA02F243EB020008BF20F0F2
:402580000100704702F1200201FA02FCC2F1200250EA4C0021FA02F243EB020008BF20EADC7070474FF0FF0C1CEAD0521EBF1CEAD15392EA0C0F93EA0C0F6FD01A4480EA38
:4025C000010C400218BF5FEA41211ED04FF0006343EA501043EA5111A0FB01310CF00040B1F5000F3EBF490041EAD3715B0040EA010062F17F02FD2A1DD8B3F1004F40EB57
:40260000C25008BF20F00100704790F0000F0CF0004C08BF49024CEA502040EA51207F3AC2BFD2F1FF0340EAC250704740F400004FF00003013A5DDC12F1190FDCBF00F03D
:4026400000407047C2F10002410021FA02F1C2F1200200FA02FC5FEA310040F1000053EA4C0308BF20EADC70704792F0000F00F0004C02BF400010F4000F013AF9D040EA78
:402680000C0093F0000F01F0004C02BF490011F4000F013BF9D041EA0C018FE70CEAD15392EA0C0F18BF93EA0C0F0AD030F0004C18BF31F0004CD8D180EA010000F0004080
:4026C000704790F0000F17BF90F0004F084691F0000F91F0004F14D092EA0C0F01D142020FD193EA0C0F03D14B0218BF084608D180EA010000F0004040F0FE4040F40000DC
:40270000704740F0FE4040F4400070474FF0FF0C1CEAD0521EBF1CEAD15392EA0C0F93EA0C0F69D0A2EB030280EA010C49024FEA402037D04FF0805343EA111143EA1013C3
:402740000CF000408B4238BF5B0042F17D024FF4000C8B4224BF5B1A40EA0C00B3EB510F24BFA3EB510340EA5C00B3EB910F24BFA3EB910340EA9C00B3EBD10F24BFA3EB61
:40278000D10340EADC001B0118BF5FEA1C1CE0D1FD2A3FF650AF8B4240EBC25008BF20F0010070470CF0004C4CEA50207F32C2BFD2F1FF0340EAC250704740F400004FF0DB
:4027C0000003013A37E792F0000F00F0004C02BF400010F4000F013AF9D040EA0C0093F0000F01F0004C02BF490011F4000F013BF9D041EA0C0195E70CEAD15392EA0C0F0B
:4028000008D142027FF47DAF93EA0C0F7FF470AF084676E793EA0C0F04D14B023FF44CAF08466EE730F0004C18BF31F0004CCAD130F000427FF45CAF31F000437FF43CAF8F
:402840005FE700BF4FEA4002B2F1FE4F0FD34FF09E03B3EB12620DD94FEA002343F0004310F0004F23FA02F018BF404270474FF00000704712F1610F01D1420205D110F099
:40288000004008BF6FF0004070474FF000007047014B1868704700BF5081FF1F0E4B70B51E460E4C0025E41AA410A54204D056F8253098470135F8E702F0C4FB084B094CD6
:4028C0001E46E41AA4100025A54204D056F8253098470135F8E770BD5050000050500000505000005850000010B5431E0A44914204D011F8014B03F8014FF8E710BD0346E6
:402900000244934202D003F8011BFAE770472DE9F04788B0149F002B1E461299B8BF03F1004327F02007B6BF1E4600232D23462F1446109DDDF84CA00B7003D0452F03D17E
:40294000013501E0032300E0022307AA049206AA03928DE828042246334600F001FD472F804602D1119BDB0728D5462F08EB050911D198F80030302B0AD100220023204686
:402980003146FFF7A7FC18B9C5F10105CAF80050DAF8003099440022002320463146FFF799FC08B9302202E0CDF81C9006E0079B994503D9591C07911A70F8E74046079B96
:4029C000159AC8EB0303136008B0BDE8F087034673B50029B8BF494203F8022BB4BF2D222B22092942701ADD0DF1070216460A2591FBF5F405FB1411092C01F1300102F8FC
:402A0000011D2146F4DC3031541E02F8011CB4421A460AD214F8012B03F8012BF7E71A463024214402F8024B5970101A02B070BD2DE9F04F91B00C46DDF8688016461F4650
:402A4000054601F025FA03681846099300F0F4FB00230E93D8F800300A90073323F0070303F1080294F81890D4F800B0C8F80020D3E90023C4E91223D4F84CA0D4F8488067
:402A80002AF000430B934FF0FF32A74B40460B9901F052FFA0B94FF0FF32A34B40460B99FFF72CFC60B90022002340465146FFF71BFC10B12D2384F843309C4B9C4A0AE00F
:402AC000424653464046514601F036FF002800F09281984B984AB9F1470F8CBF90469846032323612BF0040323604FF0000A3DE0B9F1670F00F08A81B9F1470F00F08681BC
:402B000023600193636800210DF13302059002920093424653460691CDF81090CDF80CE02846FFF7F4FE09F0DF03472B804600F08481B9F1650F0D9900F28D8101394A46E9
:402B400004F150000D91FFF742FF0E9A82468318012A236100F37C812268D10700F178819DF8333013B12D2384F84330009733460FAA2146284600F09FF9013002D14FF0E1
:402B8000FF3096E123685A0501D4236965E0B9F1650F40F2D580D4E9120100220023FFF799FB78B30123654A31462846B8470130E5D00E9B0D9A9A420BDB2368D80708D47B
:402BC00023689B0740F111814FF0000804F1190906E10A9B099A31462846B8470130CED04FF0000804F11A090E9B013B9845E7DA01234A4631462846B8470130BFD008F172
:402C00000108F1E70D9B002B29DC01234B4A31462846B8470130B2D00D9B23B90E9B13B92368D907CCD50A9B099A31462846B8470130A4D04FF0000904F11A0A0D9B5B420F
:402C4000994509DA0123524631462846B847013095D009F10109F1E70E9B4246A7E00E9AA36D9A42A8BF1A46002A914606DC4FF0000A29EAE97904F11A0B11E013463146F2
:402C800042462846B8470130F1D178E701235A4631462846B84701303FF471AF0AF1010AA36DC9EB03029245F0DB08EB03090D9A0E9B9A420FDB2368DA070CD40E9B0D9A7F
:402CC0009844C9EB08089B1A9845A8BF9846B8F1000F08DC0FE00A9B099A31462846B8470130EBD14BE743464A4631462846B84701303FF444AF4FF0000928EAE87804F184
:402D00001A0A09E00123524631462846B84701303FF435AF09F101090D9A0E9B9B1AC8EB03039945EEDB4BE7FFFFEF7FE74E0000EB4E0000EF4E0000F34E0000F74E000066
:402D40000E9A012A01DCDB0738D50123424631462846B84701303FF412AF0A9B099A31462846B84701303FF40AAFD4E9120100220023FFF7AFFA20B14FF0000804F11A09D2
:402D80000EE00E9B08F10102013B19E001234A4631462846B84701303FF4F1AE08F101080E9B013B9845F1DB534604F1500231462846B84701307FF403AFE0E64246012394
:402DC00031462846B8470130EED1D8E601234A4631462846B84701303FF4D1AE08F10108E3680F9A9B1A9845F0DBE0680F9B9842B8BF18465DE062680EA8531C0DF1340E66
:402E00004BF480637FF474AE062201E012B90122626075E6002106910DF133018DE80C00236005904246CDF81090CDF80CE0029153462846FFF76BFD80460D9BD81C02DB6F
:402E4000626893421DDDA9F102095FFA89F970E60133236184E6B9F1660F14D10029636807DD216113B92268D2071DD501330B4419E013B92268D00701D5023313E0012377
:402E800011E04FF067090D9B0E9A934205DB22682361D10708D5013305E0002BD4BFC3F102030123134423610D9B4FF0000AA36556E611B0BDE8F08F2DE9F04791461F4678
:402EC0000A698B6806469342B8BF1346C9F8003091F843200C46DDF8208012B10133C9F800302368990642BFD9F800300233C9F80030256815F0060510D104F1190A07E020
:402F00000123524639463046C04701301AD00135E368D9F800209B1A9D42F1DB94F843302268003318BF012392060FD5E118302081F843005A1C94F845102244023382F848
:402F4000431003E04FF0FF30BDE8F08704F1430239463046C0470130F4D02268D9F80050E36802F00602042A08BF5D1B2269A3680CBF25EAE57500259342C4BF9B1AED1808
:402F80004FF000091A344D4509D00123224639463046C0470130D5D009F10109F3E70020BDE8F0872DE9F04317460A7E85B06E2A984606460C460C9B01F1430E00F0AE8019
:402FC00011D8632A22D009D8002A00F0BB80582A40F0CA8081F84520834955E0642A1ED0692A1CD0C0E0732A00F0B08009D86F2A2ED0702A40F0B8800A6842F020020A6056
:403000003EE0752A24D0782A3AD0ADE01A6801F14205111D1960136884F84230A8E021681A6811F0800F02D0111D196008E011F0400F02F10401196002D0B2F9003000E009
:403040001368002B3CDA2D225B4284F8432037E021681A6811F0800F02D0111D196007E011F0400F02F10401196001D0138800E01368227E5C496F2A14BF0A2208221BE02D
:4030800078225A4984F845202268186812F0800F00F104051D6003D1550601D5038800E00368D00744BF42F0200222601BB9226822F0200222601022002084F8430001E04F
:4030C00049490A226568002DA56008DB206820F0040020602BB9002D7DD175460CE0002B79D07546B3FBF2F002FB1033CB5C05F8013D03460028F5D1082A0BD12368DA07FC
:4031000008D5236962689A42DEBF302305F8013C05F1FF35C5EB0E0323612EE008681A6810F0800F496903D0101D1860136808E010F0400F02F104001860136801D0198028
:4031400000E0196000232361754616E01A68111D1960156800216268284600F0A5FE08B1401B6060636804E004F1420584F8422001232361002384F84330CDF800803B46EF
:4031800003AA21463046FFF797FE013002D14FF0FF3026E023692A4639463046C0470130F5D023689B0710D5002504F1190907E001234A4639463046C0470130E7D0013591
:4031C000E368039A9B1A9D42F2DBE068039B9842B8BF184605E00B7804F1420584F842308AE705B0BDE8F083F94E00000A4F00000EB400B54FF402719CB0ADF814106FF0E0
:403200000041049107914FF6FF711DAB02900690084853F8042BADF81610006802A9019301F038FA029B00221A701CB05DF804EB03B070475081FF1F034613F8012B002AC0
:40324000FBD1181A013870472DE9F74F03690C6980469C427FDC013C01F114074FEA840E00F1140606EB0E0357F82450019356F824300135B3FBF5F507EB0E09C5B34FF07B
:40328000000A3846B446D34650F8043B9AB205FB02A21B0C4FEA124A05FB03A392B2C2EB0B0BBCF800204FEA134A5A441FFA83FBDCF800308145CBEB134303EB224392B287
:4032C00042EA03424FEA234B4CF8042BDCD256F80E306BB9019B043B9E421A4602D3C8F8104005E01268043B002AF8D1013CF3E7404600F0F4FF00282BDB304601354FF0BB
:40330000000E57F8042B036891B2C1EB0E0E120C99B27144C2EB134303EB214389B24FEA234EB94541EA034340F8043BE9D256F8242006EB840362B9043B9E421A4602D319
:40334000C8F8104005E01268043B002AF8D1013CF3E7284600E0002003B0BDE8F08F00002DE9F04F456A95B08246219CCDE9022345B9102000F090FDCAF82400456085608C
:403380000560C560DAF82430196859B15A68012393404A608B60504600F0C9FDDAF8243000221A60039BA04A002BBDBF01232360039B0023BCBF23F000430393DDF80C8017
:4033C000A8BF236028F000431B0D1B0593421DD142F20F73209A1360029B43B9934A944BC8F31300002814BF1846104600E09048229B002B00F04685C37813B100F1080372
:4034000000E0C31C229A136000F03CBDDDE902450022002320462946FEF75CFF074658B1209A01231360229B002B00F01E8581481860013800F026BD12AB019313AB00932D
:4034400022462B46504600F0C5FFC8F30A56049056B1C5F3130343F07F51204641F44011A6F2FF3611971DE0139B129E1E4406F23243202B0ADD029A06F21240C3F1400308
:4034800022FA00F008FA03F3184304E0C3F12000029B03FA00F0FEF73FFC0123A1F1F871013E11930022644BFEF7F8FA58A3D3E90023FEF7A7FC58A3D3E90023FEF7F0FA56
:4034C000044630460D46FEF737FC55A3D3E90023FEF798FC02460B4620462946FEF7E0FA04460D46FEF728FF00228346002320462946FEF7F9FE58B15846FEF71DFC02466F
:403500000B4620462946FEF7E5FE08B90BF1FF3BBBF1160F0DD8DDE90223484901EBCB01D1E90001FEF7FEFE30B10BF1FF3B002300E00123109300E01090129B9E1B731EA8
:40354000079343BFC3F10008002307934FF00008BBF1000F06DB079BCDF82CB05B440793002705E00023CBEB0808CBF100070B931E9B092B28D8052BC4BF043B1E931E9B38
:40358000C8BF0025A3F10203D8BF0125032B20D8DFE803F0060E0204012302E0012308E000230A931F9B002B1DDD9946059321E000230A931F9B0BEB030909F10103012B40
:4035C0000593B8BF012315E0012500231E930A9501E001230A934FF0FF390022CDF8149012231F9206E04FF001094B46CDF81490CDF87C90DAF8244000226260042101F155
:4036000014029A421CD86268490001326260F6E761436F63A787D23FB3C8608B288AC63FFB799F501344D33F0000F07F1B4F0000244F0000F84E00000000F83F304F0000D9
:403640006168504600F03EFCDAF8243020601B680693059B0E2B00F25B81002D00F05881DDE90234BBF1000FCDE90E3430DD9F4A0BF00F034FEA2B1502EBC303E80618CBB3
:40368000CDE908340CD5DDE90E01994B05F00F05D3E90823FEF7E0FC0324CDE9020100E00224934E6DB1E90708D5DDE90801D6E90023FEF7A7FBCDE9080101346D10083614
:4036C000F0E7DDE90823DDE90201FEF7C5FC20E0CBF1000505B3DDE90E01844B05F00F0203EBC203D3E90023FEF78CFBCDE902017F4E2D110023022455B1EA0705D5D6E9B5
:403700000023FEF77FFB013401236D100836F3E71BB1CDE9020100E00224109BE3B1DDE902560022734B28463146FEF7DDFD98B1059B8BB1B9F1000F40F3E6800BF1FF33E8
:403740000893314600226C4B2846FEF75BFB0134CDE902014E4602E0059ECDF820B02046FEF7EAFADDE90223FEF74CFB634B0022FEF796F9A1F1507304460C931D46D6B91F
:40378000DDE9020100225E4BFEF788F922460C9BCDE90201FEF7C6FD002840F03F820C99224601F10043DDE90201FEF79DFD002840F02B82A8E00A9A4C4B711E002A49D032
:4037C00003EBC103D3E9002300204E49FEF744FC22462B46FEF762F9CDE90C01069CDDE90201FEF7A9FD0546FEF7A6FA02460B46DDE90201FEF752F9DDE90C23303504F882
:40380000015BCDE90201FEF76FFD002840F01D83DDE9022300203749FEF740F9DDE90C23FEF762FD002840F0D180069BE31AB3426ADADDE90C0100222F4BFEF7E3FA002235
:40384000CDE90C01DDE902012B4BFEF7DBFACDE90201C4E703EBC1012246D1E900012B46FEF7D0FA069BCDE90C011D469C19DDE90201FEF761FD0646FEF75EFA02460B464B
:40388000DDE90201FEF70AF9303605F8016BAC42CDE902014FF0000222D11A4BDDE90C01FEF7FEF802460B46DDE90201FEF73AFD002840F08B80DDE90C2300201149FEF725
:4038C000EDF802460B46DDE90201FEF70DFDD8B114F8013C621E302B40F0B7821446F7E7054BFEF78FFACDE90201C0E7304F0000085000000000F03F0000244000001C4040
:40390000000014400000E03FDDE90E34CDE90234139B002B7CDBBBF10E0F79DCAB4B03EBCB03D3E900671F9B002B14DA059B002B11DC40F06C810022A54B30463946FEF759
:4039400061FADDE90223FEF7E3FC059D2E46002840F05F8165E1069CDDE9028932463B4640464946FEF778FBFEF7E6FC0546FEF7E3F932463B46FEF745FA0B4602464946E8
:403980004046FEF78BF805F1300E069B04F801EBC3EB040E059B73452DD102460B46FEF77FF88046894602460B4630463946FEF79BFC78B942464B4630463946FEF78AFCC8
:4039C000002800F04482EB0704D440E2DDF820B000E01C4614F8012C631E392A07D1069A9A42F6D1069930220BF1010B0A701A7801321A702BE20022764BFEF703FA002218
:403A0000002380468946FEF765FC0028A6D01EE20A9A002A2BD01E9A012A0ADC119A12B103F2334302E0129BC3F136033D46444613E0059B5D1EAF42BFBF0B9BEA1B9B180B
:403A40000B93059BB6BF2F467D1B0025002BA7BF4446059BC3EB08040023079A01211A4450469844079200F001FB064602E03D4644460A9E5CB1079B002B08DDA342A8BFC3
:403A80002346079AC3EB0808E41AD31A0793002F1DDD0A9BABB18DB131462A46504600F07FFB049A01460646504600F0E8FA04990890504600F03BFA089B04937A1B06D03C
:403AC00000E03A460499504600F06AFB04900121504600F0CBFA0B9B05465BB31A460146504600F05DFB1E9B0546012B18DC029B83B9039BC3F3130373B9039B23F00047CE
:403B00003F0D3F054FB1079B08F1010801330793012702E0002700E0029F0B9B73B100E000272B6905EB8303186900F052FAC0F1200004E01E9B012BD9DD0B9F0120079B7C
:403B4000184410F01F0008D0C0F12003042B02DDC0F11C0002E006D018461C30079B8044034404440793B8F1000F05DD42460499504600F063FB0490079B002B05DD2946FD
:403B80001A46504600F05AFB0546109B23B32946049800F0A4FB00281EDA00230A220499504600F0DBF90A9B0BF1FF3B0490002B00F05F81314600230A22504600F0CEF981
:403BC000B9F1000F06463FDC3BE000BF304F00000000144000002440059B002B2BDC1E9B022B28DDDDF81490B9F1000F11D129464B460522504600F0B1F90146054604983E
:403C000000F06DFB00280CDC03E0354600E000252E461F9B069C6FEA030B09E03546DDF820B0069B069A5C1C312313700BF1010B05960026F7E00A9BDDF8149023B9069CAD
:403C4000B2E01E9B022BCFDC002C05DD31462246504600F0F3FA06469FB17168504600F031F90446326906F10C01023292000C30FEF73AFE01222146504600F0DFFA059006
:403C800000E00596029B069F03F00103079329460498FFF7D9FA3146044600F13008049800F01DFB059A02902946504600F033FBC36802463BB901460A90049800F00FFB22
:403CC0000A9A034600E00123114650460A9300F02EF90A9B53B91E9A42B9079A32B9B8F1390F2AD0029B002B1CDC1DE0029A002A04DB1BD11E9ACAB9079ABAB9002B13DD9F
:403D000001220499504600F099FA2946049000F0E6FA002803DC07D118F0010F04D0B8F1390F0AD004F131087C1C0CE0002B07F101040BDDB8F1390F03D139233B7001377B
:403D400056E008F1010887F800806CE0069B2746E31A4B4504F8018C3BD000230A220499504600F0FBF8059B04909E424FF00A024FF000033146504604D100F0EFF8064686
:403D8000059084E700F0EAF8002306460A220599504600F0E3F8059079E700230A220499504600F0DBF8049029460498FFF74CFA069B00F1300804F8018BE31A4B45ECDBDC
:403DC000069B0596B9F1010FACBF4B4401331F46002601220499504600F030FA2946049000F07DFA002803DC15D118F0010F12D03C4614F8013C621E392B09D1069B934254
:403E000004D10BF1010B3123069A02E01446F0E70133137007E03C4614F8013C621E302B01D11446F8E72946504600F080F8059B6BB12EB19E4203D03146504600F077F828
:403E40000599504600F073F801E0DDF820B00499504600F06CF80023209A23700BF101031360229B1BB11C6001E008480AE0069808E0B9F1000F3FF7E2AE1E9B022B7FF742
:403E8000DEAEB1E615B0BDE8F08F00BFF74E0000004870475481FF1F024B0146186800F041BB00BF5081FF1F10B5C9B202449042034605D01C7801308C42F8D1184610BD55
:403EC000002010BD70B5456A04460E463DB91020FFF7E2FF6062456085600560C560656AEB6843B1636ADB6853F8260078B1026843F8262017E021220421204600F0B8FA7E
:403F0000636AE860DB68002BECD1002070BD012101FA06F56A1D9200204600F0A9FA0028F3D04660856000230361C36070BD70B5446A06460D463CB91020FFF7ADFF706272
:403F4000446084600460C4603DB1736A6A68DB6853F82210296043F8225070BD2DE9F04106460C460D691F4601F1140E0023DEF80000013381B202FB0171000C0F0C02FBAA
:403F8000007089B201EB00419D424FEA10474EF8041BECDCD7B1A3689D4212DB616830460131FFF78FFF8046226904F10C01023292000C30FEF798FC21463046FFF7B7FFD2
:403FC000444604EB850301355F6125612046BDE8F081030C1B0413B90004102300E0002310F07F4F04BF0002083310F0704F04BF0001043310F0404F04BF800002330028DD
:4040000003DB420003D5581C70471846704720207047036813F007020BD0D90722D49A074BBF5B089B08036003604CBF01200220704799B209B91B0C102213F0FF0F04BF73
:404040001B0A0832190704BF1B090432990704BF9B080232D90702D45B0805D00132036010467047002070472020704710B50C460121FFF727FF01224461026110BD2DE9A8
:40408000F74F14460A69236988469A42BEBF0B46A0461C46D8F81070D4F81090D8F80830D8F8041007EB09069E42C8BF0131FFF709FF00F114052B4605EB860C002263459A
:4040C00002D243F8042BFAE704F1140208F1140102EB890301EB87070093009B0192934257D9B2F800B0BBF1000F23D08946AE464FF0000859F8044BBEF800A0A3B20BFB6C
:4041000003A34FEA144ADEF8004043444FEA14480BFB0A84F24604EB13449BB243EA04434F454FEA14484AF8043B01D9D646E1E7CEF80480019B0432B3F802A0BAF1000FB2
:4041400021D02C4689462B684FF00008B9F800E0B4F802B09BB20AFB0EBEA346F04443EA08434BF8043B59F8043BB4F804E01B0C0AFB03E34F4503EB18434FEA134801D992
:404180005C46E3E763600435A7E75CF8043D13B9013E002EF9DC066103B0BDE8F08F00002DE9F843154612F0030206460F4607D0214C013A002354F82220FFF7CFFE074694
:4041C000AD1036D0746A3CB91020FFF765FE7062446084600460C460D6F82480D8F808404CB940F271213046FFF740FF04460023C8F8080003604FF00008EB070AD5394691
:4042000022463046FFF73BFF814639463046FFF78EFE4F466D100CD0206808B10446ECE7224621463046FFF72AFF2060C0F80080F4E73846BDE8F883F84F00002DE9F047BD
:404240000C460746914626694FEA621A56444968A368751CAB4202DA01315B00FAE73846FFF730FE002380461A4600F11401534503DA41F823200133F9E72AEAEA73206976
:4042800001EB830319F01F0904F1140101EB800E14D0C9F1200C002208689A4600FA09F0024343F8042B51F8042B8E4522FA0CF2F2D8CAF8042042B1B51C06E0043B51F8B2
:4042C000042B8E4543F8042FF9D8013D3846C8F810502146FFF72BFE4046BDE8F08703690A6910B59B1A11D192001430143183180A4453F8044D52F8041D8C4202D007D3B9
:40430000012010BD9842F4D3002010BD184610BD4FF0FF3010BD2DE9F8430C460746114620461546FFF7DBFF061E08D131463846FFF7C8FD012303614661BDE8F883BCBF4C
:4043400023462C4638466168BABF1D4601260026FFF7B8FD2B69C660266905F1140904F1140101EB860709EB830800F114054FF0000C51F8042B59F8044B93B29C44A3B202
:40438000240CC3EB0C03C4EB124202EB23429BB24FEA224CC84543EA02428E4645F8042BE7D8BE450ED25EF8041B8AB26244131403EB114392B242EA03424FEA234C45F80D
:4043C000042BEEE755F8043D0BB9013EFAE70661BDE8F8832DE9F3411C4601219046089E099DFFF76FFDC4F31302C4F30A5407460CB142F480120192B8F1000F19D002A8DD
:4044000040F8088DFFF705FE009B48B1019AC0F1200102FA01F10B43C2407B61019200E07B61019B002B14BF02210121BB61396107E001A8FFF7EDFD019B01217B61396113
:40444000203034B1A4F2334404443460C0F1350009E0A0F2324007EB810330601869FFF7B8FDC0EB41102860384602B0BDE8F08138B502FB01F4214600F054F8054618B1B9
:4044800022460021FEF73BFA284638BD38B50546002944D051F8043C0C1F002BB8BFE41800F017FA1E4A1368114613B96360146030E0A3420DD92268A018834201BF1868BF
:4044C0005B681218226063600C6023E0A24203D813465A68002AF9D118681918A1420BD12168014458188242196013D110685268014419605A600DE002D90C232B6009E069
:4045000021686018824201BF106852680918216062605C602846BDE8384000F0DBB938BDC081FF1F70B5CD1C25F0030508350C2D38BF0C25002D064601DBA94202D90C232E
:40454000336046E000F0C5F9234B1C681A462146A1B10B685B1B0ED40B2B03D90B60CC18CD501EE08C420BBF63684B681360636018BF0C4615E00C464968E9E7174C236857
:404580001BB9304600F07AF920602946304600F075F9431C18D0C41C24F00304A0420DD12560304600F096F904F10B00231D20F00700C31A0ED05A42E25070BD211A304651
:4045C00000F05CF90130EBD10C233360304600F081F9002070BD00BFC081FF1FBC81FF1F2DE9F0478E6882469E420C46914698463ED88A8912F4906F3AD0256809690223D3
:404600006F1A656905EB450595FBF3F57B1C43449D4238BF1D4653050FD52946FFF782FF064698B13A462169FEF75EF9A38923F4906343F08003A38113E02A4600F04BF966
:40464000064670B921695046FFF720FF0C23CAF80030A3894FF0FF3043F04003A381BDE8F08726613E44266046466561ED1BA560464528BF464649463246206800F00EF9AD
:40468000A36800209B1BA36023681E442660BDE8F08700002DE9F04F9DB003938B8980461C060D4616460DD50B695BB94021FFF739FF2860286118B90C23C8F80030CDE0FD
:4046C00040236B610023099320238DF82930DFF89CB130238DF82A3037463C4614F8013B1BB9B7EB060910D003E0252BF9D02746F3E74B46324629464046FFF771FF0130D1
:4047000000F0A780099B4B4409933B78002B00F0A08000234FF0FF3204930793059206938DF853301A930126052221784E48FFF7BBFB671C049B38B14B4A3C46801A06FA17
:4047400000F018430490EFE7D90644BF20228DF853201A0744BF2B228DF8532022782A2A03D0079A00210A200BE0039A111D12680391002A10DA524243F002000792049084
:404780000BE027463B780134303B092B03D800FB02320121F5E701B107923B782E2B1ED17B782A2B0AD1039B02371A1D1B680392002BB8BF4FF0FF33059310E00023194666
:4047C0000593781C0A2407463A780130303A092A03D804FB01210123F5E703B10591032239782248FFF760FB40B14023CBEB000003FA00F0049B0137184304903978062225
:404800001B487E1C8DF82810FFF74EFB88B1194B33B9039B073323F007030833039314E003AB00932A46144B04A94046FEF700F907E003AB00932A460F4B04A94046FEF7F1
:40484000B1FBB0F1FF3F824603D0099B5344099342E7AB895B0601D4099801E04FF0FF301DB0BDE8F08F00BF30500000365000003A500000312A0000E145000038B5064CB8
:404880000023054608462360FCF7B8F9431C02D1236803B12B6038BDD481FF1F884210B501EB020301D8421E0BE09842FBD28118D21AD34204D013F8014D01F8014DF8E779
:4048C00010BD994204D011F8014B02F8014FF8E710BD70477047F8B5074615460E4621B91146BDE8F840FFF71DBE1AB9FFF7CEFD2846F8BD00F015F885420ED929463846AC
:40490000FFF710FE044650B131462A46FDF7ECFF31463846FFF7BAFD01E03046F8BD2046F8BD51F8040C0028BEBF091851F8043CC0180438704700004FEA410C7FEA6C5C6F
:4049400002D150EA013C0AD14FEA430C7FEA6C5C02D152EA033C02D14FF0000070474FF00100704700000000534B594E45543A205472696767657265642052656C6F636BF6
:4049800065722076312E302E204920616D206177616B65210000000053657020313720323031390031303A32373A323100000000436F6D70696C6564206174202573206F86
:4049C0006E2025732E0000004177616974696E672063616C6962726174696F6E2E2053657420537769746368203420746F202743686F6F7365272E00426567696E6E696EFD
:404A000067206D61696E2073657175656E6365202863616C6962726174696E672C207468656E20617474656D7074696E6720746F2072656C6F636B292E0000005377697410
:404A4000636820746F204C6F636B20746F20656E676167652072656C6F636B6572206F722073616D706C6520746865206572726F72207369676E616C2072616E67652E0077
:404A80004E6F772073616D706C696E67206F75742D6F662D6C6F636B206D6178696D756D206572726F72207369676E616C20766F6C746167652E000053616D706C696E6776
:404AC000206176657261676520696E2D6C6F636B204C46206F75747075742E0043616C6962726174696F6E20636F6D706C6574652E0000002D2D3E204C46206176673A202C
:404B0000252E3366562C207365747320626F756E6473206174205B256C642C20256C645D3D5B252E3366562C20252E3366565D002D2D3E20444143207377656570207261FE
:404B40006E67653A205B256C642C20256C645D3D5B6C6F776E756D2C20686967686E756D5D3D5B252E3366562C20252E3366565D000000002D2D3E20457272206D6F6E6967
:404B8000746F723A205B25642C2025645D3D5B252E3366562C20252E3366565D3B207468726573686F6C6420252E336620252E336600000044657465637465642064726FA4
:404BC00070706564206C6F636B2028252E336656292E2057616974696E6720666F7220426C6F636B204C6F636B2054544C206C6F77206265666F72652072656C6F636B6932
:404C00006E672E2E2E00000044657465637465642064726F70706564206C6F636B2028252E336656292E20426C6F636B204C6F636B2054544C206973206C6F7720736F20E3
:404C400049276D2072656C6F636B696E67206E6F772E00004661696C656420746F2072656C6F636B2025642074696D657320284D41585F4641494C535F4245464F52455F97
:404C80004C4544292E00000052656C6F636B207375636365737366756C21204C46204F75747075742061742025302E336620562E00000000646174615B25642C25642C252B
:404CC000645D3A0052756E6E696E6720696E2027323856204C6F6F702046696C74657227206D6F64652E000052756E6E696E6720696E2027323256204C6F6F702046696CB2
:404D000074657227206D6F64652E000052756E6E696E6720696E20273856204C6F6F702046696C74657227206D6F64652E0000004C6F6F702066696C74657220766F6C74E2
:404D40006167652073657474696E6720636F756C64206E6F7420626520666F756E642E204973202B2F2D313556206F6E3F2052657374617274206D652E0000004572726FB7
:404D8000723A206D756C7469706C65206C6F6F702066696C74657220766F6C746167652073657474696E67732077657265206D656173757265642E20436865636B20656C32
:404DC000656374726F6E6963730000004D65617375726564204C46206F75747075743A20252E33662056202825356C64293B206572726F72206D6F6E69746F723A20252E7F
:404E00003366205620282535642900005377656570696E672066756C6C206F75747075742072616E67652E20546F67676C65202743616C6962726174652720737769746332
:404E40006820666F722022302D312056222E00005377656570696E672022302D312056222028256C642D256C64292E20546F67676C65202743616C69627261746527206670
:404E80006F722066756C6C2072616E67652E0000035B00402443004040000000405100401000605100401000C05100401000F05100401000000001400010001401400008DC
:404EC00000400140000A004C01400002005001402000000030313233343536373839414243444546004300494E4600696E66004E414E006E616E0030003031323334353639
:404F0000373839414243444546003031323334353637383961626364656600496E66696E697479004E614E00504F534958002E00000000000000F03F000000000000244037
:404F400000000000000059400000000000408F40000000000088C34000000000006AF8400000000080842E4100000000D01263410000000084D797410000000065CDCD41F0
:404F8000000000205FA00242000000E876483742000000A2941A6D42000040E59C30A2420000901EC4BCD64200003426F56B0C430080E03779C3414300A0D88557347643B4
:404FC00000C84E676DC1AB43003D9160E458E143408CB5781DAF154450EFE2D6E41A4B4492D54D06CFF08044F64AE1C7022DB544B49DD9794378EA440500000019000000F1
:405000007D000000000000000080E03779C34143176E05B5B5B89346F5F93FE9034F384D321D30F94877825A3CBF737FDD4F1575232D302B2000686C4C0065666745464785
:4050400000000000F8B500BFF8BC08BC9E4670474D000000790C0000F8B500BFF8BC08BC9E4670472900000078500000C880FF1FC80000004800000000000000D881FF1F82
:4050800001FF00000000E02EC05D00001800000000366E01115000400200000001000000000000000000000000000000000000000000000000000000000000000000000064
:4050C000E54E00000000000000000000000000000000000000000000000000000000000000000000000000000000000000000000000000000000000000000000000000007D
:40510000F080FF1F2E4F0000355000003550000035500000355000003550000035500000355000003550000035500000FFFFFFFFFFFFFFFFFFFFFFFFFFFF000000000000C5
:40514000000000000000000000000000000000000000000000000000000000000000000000000000000000000000000000000000000000000000000000000000000000002F
:4051800000000000000000000000000000000000000000000000000000000000000000000000000000000000000000000000000000000000000000000000000000000000EF
:4051C00000000000000000000000000000000000000000000000000000000000000000000000000000000000000000000000000000000000000000000000000000000000AF
:40520000000000000000000000000000000000000000000000000000000000000000000000000000000000000000000000000000000000000000000000000000000000006E
:020000040003F7
:0200000480007A
:40000000015200400502014003030140010501400107014001090140010B014001150140011B01400240014005410140014201400243014002440140014501400646014013
:40004000024701400248014001490140014C0140024D01400151014001A038083E0458045B045F011E206F018701B210EE04EE04E880EC10EC103320CC1063048704A720CD
:40008000D840E240A720AB20EE207C20DE019C201B044508B020C608D001E801A508AB042510C820B510A508B508EC080003000015A0A000A0004A00000B0B000000000077
:4000C000020000020200000000000000010000000000020015AAAA00000000000E0018018600180100000000000000000000000000000000000000000000000000000000C8
:4001000000000000000000000000000000000000000000000000000000000000000000000000000000000000000000000000000000000000000000000000000000000000BF
:40014000000000000000000000000000000000000000000000000000000000000000000000000000000000000000000000000000000000000000000000000000000000007F
:40018000000000000000000000000000000000000000000000000000000000000000000000000000000000000000000000000000000000000000000000000000000000003F
:4001C00000000000000000000000000000000000000000000000000000000000000000000000000000000000000000000000000000000000000000000000000000000000FF
:0200000490006A
:0400000000004005B7
:0200000490105A
:04000000BC90ACAF55
:0200000490303A
:020000003F6956
:0200000490402A
:4000000000000000000000000000000000000000000000000000000000000000000000000000000000000000000000000000000000000000000000000000000000000000C0
:400040000000000000000000000000000000000000000000000000000000000000000000000000000000000000000000000000000000000000000000000000000000000080
:400080000000000000000000000000000000000000000000000000000000000000000000000000000000000000000000000000000000000000000000000000000000000040
:4000C0000000000000000000000000000000000000000000000000000000000000000000000000000000000000000000000000000000000000000000000000000000000000
:0200000490501A
:0C00000000012E12306900012E316FD279
:00000001FF