:400000000080002011000000AD0B0000AD0B000008B5044B1A6803F53F5302331A6000F0E5FD00BFFA46004010B5054C237833B9044B13B10448AFF300800123237010BD25
:400040009081FF1F00000000C8470000084B10B51BB108490848AFF300800848036803B910BD074B002BFBD0BDE81040184700BF000000009481FF1FC8470000C880FF1F54
:4000800000000000000000002DE9F04FADF55D7D62B64FF4FF7200215CA802F055FB002001F026F8012001F049F8642001F06CF9012001F037F8642001F066F9012000F0BA
:4000C000A9FF642001F060F9012001F01FF8642001F05AF9002001F031F8642001F054F9002001F01FF8642001F04EF9002000F091FF642001F048F9002001F007F86420CF
:4001000001F042F9C82001F03FF9012001F016F8012001F007F8012000F0F8FF012000F079FFC82001F030F9002001F007F8002000F0F8FF002000F0E9FF002000F06AFF36
:4001400001F056FA01F062FA00F0E8FE00F0F6FE01F0A0F900F0BAFF01F0C8FAAE4800F031FAAE4BAE4AAF491CA802F067FF1CA800F028FA1BAB009319AA1AAB18A90020A3
:4001800000F08EFA00F0BAFF044690B9A64800F019FA0A9400F0B2FF68B9FA2001F0F4F80A9BC3F101030A939DF8280000F0BAFFF0E700230A934FF0000BDA469B4800F00F
:4001C00001FA9B4800F0FEF9012310931F4600230E930D93CDF844B0CDF824B0CDF830B0CDF82CB04FF00008454647F6FF7400F085FF012806466ED1002000F09FFF304644
:4002000000F090FF01F06AFA0128804628D1109B8BB1884800F0D6F947460CE0002001F0FDF901F00FFA844204DC8542B8BF054620462DB2044601F051FA0128EED02B1BEB
:40024000142293FBF2F2224412B20F926FF0130293FBF2F32B441BB214930023109337E01FB1754800F0AEF91096002000F06EFE00F080FE00F0B6FE159001F04FFC64A324
:40028000D3E900230F46064601F0EAFA01F05CFF5FA3D3E900230D903946304601F0DEFA01F052FF0E900D9800F0B0F90B900E9800F0ACF91A9A0C901B990D9800F0C0F91B
:4002C0001A9A09901B990E9800F0BAF9002711904FF001088BE7B8F1000F5FD0284601F0CBF98046204601F0C7F981460F9801F0C3F91690149801F0BFF917904F4800F007
:4003000061F90E9801F00AFCCDE912010D9801F005FC064615980F4601F000FCDDE91223CDE902230B9B024601930C9BCDE9046700931CA80B46424902F080FE1CA800F0B4
:4003400041F9DDE912233F49CDE90223CDE90067119B099A1CA802F071FE1CA800F032F9179801F0DBFBCDE90601169801F0D6FBCDE90401484601F0D1FBCDE9020140468D
:4003800001F0CCFB2346CDE900012A462E491CA802F054FE1CA800F015F90127012000F0CDFE002000F0BEFE002000F0CFFD00F0E1FD0B9B0446834203DC0C9B8342BFF685
:4003C00011AF01F0C5F90128204643D100F00AFE01F0A4FB02460B461CA81C4902F02EFE1CA800F0EFF81A4D01F0B2F901283ED1AB4509DD0A9B4FF0000BC3F101030A9393
:400400009DF8280000F082FE0BF1010BECE700BF333333333333D33FD0470000FD470000094800001248000028480000584800009A480000DE4800001549000039490000B3
:400440004F4900008B490000CC4900000A4A0000DF93040000F0C6FD01F060FB02460B461CA8544902F0EAFD1CA800F0ABF8002000F064FE012000F049FE099B0025C3F3BF
:4004800007260B9BA34271DD4FF00008C246012000F02EFE304600F0C7FF9DF82440204600F0DEFDDDF82490C9F3072000F0BCFF5FFA89F000F0D4FD002001F0AFF801F001
:4004C000C1F85CAB23F81A000F9B834221DCB8F1000F20D00F9B83421DDA002000F008FE002000F033FD00F045FD044600F07AFD0B9B03930C9B029301F010FB2246CDE9C2
:4005000000012D491CA802F099FD1CA800F05AF8B7E74FF00108119B4B4518D1304600F083FF0135204600F09BFD142D0AD1012000F070FD2A4621491CA802F07FFD1CA871
:4005400000F040F84FF00008C246DDF82490012000F030FF0AF101039BB2FF2B94BF0FFA83FA4FF0000A09F101099DE70C9BA3428ADB204600F036FD01F0D0FA02460B464D
:400580001CA80F4902F05AFD1CA800F01BF8149B5246FF2100935CA80F9B00F01BF8012000F0CCFD002000F0B1FD002000F032FD18E600BF5C4A0000A74A0000D84A000017
:4005C0000A4B000008B501F092F8BDE8084001F0B5B8000070B5C2B00D4646990646009102A8094902F02AFD02A801F080F80024AC4205DA36F8140001F096F80134F7E790
:4006000001F09CF842B070BD334B000038B50446094B1868094B1D6801F0A0FE214601F0F1FE0446284601F099FE0146204601F0E1FD02F037F838BDC881FF1FB881FF1F4E
:400640002DE9F0418046C2F500400E4601F054FA044630460D4601F061FA02460B460EA1D1E9000101F0D8FB064640460F4601F055FA02460B463046394601F0A3FA0246F2
:400680000B462046294601F0E9F801F035FDBDE8F08100BFAFF3008000000000E0FFEF402DE9F04FCDB008908348884691461E46569F00F0D9FF4FF4FE6000F0CFFFDFF8E9
:4006C00030A2012500F056FD0128044616D11C23C8F8003046F60C7000F078FC774800F07BFC40F25F13C9F8003040F2532374483360C7F800A0FFF765FF00E0002400F0BB
:4007000031FD012816D11623C8F8003046F6A81000F05CFC6B4800F05FFC40F2BF13C9F8003040F24C433360674B68483B60FFF749FF013400F00EFD012817D10823C8F868
:40074000003046F6D44000F041FC614800F044FC40F2CD43C9F800304FF4E17333605D4B5D483B60FFF72EFF01340CE05CB95B48FFF728FFE8B200F04DFCFA20C5F10105EC
:4007800000F002FEF6E7012C0BD05548FFF71AFFE8B200F03FFCFA20C5F1010500F0F4FDF6E7326839684FF07E50FFF749FF8346C0F3072000F038FE5FFA8BF000F050FC00
:4007C000089B002B74D05FFA85FB584600F0B6FC5846CBF1010B5FFA8BFB00F01BFC584600F0A0FC584600F091FC002000F0AEFB00F0C0FB079000F0F5FB0A90002000F0B8
:400800000DFF00F01FFF099000F036FF0A998346084601F083F902460B46CDE90A23099B5846049301F07AF9079BCDE9020100932C49DDE90A230CA802F000FC0CA8FFF75E
:40084000C1FE204600F054FC00F058FCC5F10105044630B92448A346FFF7B4FE4FF6FF741AE03368D7F800B01A46594600200793FFF7E6FE079B59461A4604464FF07E508C
:40088000FFF7DEFE22460346834618490CA802F0D5FB0CA8FFF796FE5C45FFF613AFE0B200F0DEFBC4F3072000F0BEFD013CF3E74DB0BDE8F08F00BF08F1FFFF6AF8FFFF4D
:4008C000434B0000AAF6FFFF6D56A541664B00003DE6FFFF7460F440894B0000AB4B0000F54B0000434C0000824C0000C54C00008E06E241012807D8044B53F820201844DC
:400900001178037A0B431370704700BF044D0000012808D8044B53F820201844017A137823EA010313707047044D00002DE9F04172B6814A814D1378002443F004031370C4
:40094000062606FB04530021DA89D3F80A00013401F0FAFE092CF4D179487A4D002450F8041F04F1105303F12C0221F0FF062D33C9B20B4452005B0002329A4206D012F814
:40098000027C12F801EC07F806E0F5E7A8420C44E5D16D4B0A221A70012283F884226B4A6B4D13786B4C43F002031370137C6A4F43F0020313742B78A2F5863243F0400386
:4009C0002B70413A1378192643F010031370634B03CBC2F8400DC2F8441D03CBC2F8500DC2F8541D93E8070003C422805C4A0C3303CB1060516003CB51625A4910620A78C9
:400A0000002442F008020A70574A61211170A2F5F06250211480917093E803008032534B82E8030002221A70032108224FF040231A7083F800124E4B4E491B78DBB20B708E
:400A40004D4B1A8041F2512223F8022C3B784FF4F07003F0010343EA440400F081FE013E04F0030466D0032CF0D1444B4FF480721A80434907221A70482000220A7088702B
:400A80001A700421022203F8032CD9713D493E4F0B78DFF8148143F001030B7011F8013C3A4843F0030301F8013C2B78812143F080032B702C4B197003F5F7230121043303
:400AC0001970334B1B783C78DBB298F80060E4B203F0070E1B0980F800E0F6B2437044F003033B7046F0030388F80030294B4FF42460188083F83120802283F8F52783F892
:400B00007719254920230B7081F8683081F88820224A0A20137000F04DFC214B88F8006044223C701F4C1A7095E80F0007C42380BDE8F081FEE700BFE8460040044D0000AF
:400B4000FCFFFF47540000488358004003500140A04300402051004025420040B00000483251004022430040004800400043004008010049A1460040224200400440004062
:400B800006400040A2430040F84600406E580040CF0100490C510040985A0040235B004076580040B0430040F946004008B501F09FFD03680C2B00D1FEE7FEE7094908B50A
:400BC0000B68094A1844821AB2F5007F01DC086005E001F08DFD0C2303604FF0FF33184608BD00BFCC80FF1FE081FF1F80B51148114B0025C0B1A3F1100192C92246043979
:400C0000161BB74204D051F8046F42F8046BF7E7114653F8046C8C1AA64202D041F8045BF9E701381033E5E701F068FDFFF72CFAFEE700BF01000000F04E0000104A114B36
:400C400010B41A60104A114C1368114843F4007313600023032B98BF54F823204FEA830188BF0C4A0133302B4250F3D10A4B1A780A4B1A700A4B064A10BC1A60FFF756BE5D
:400C80000004FA050CED00E014ED00E0000000000080FF1FAD0B0000BC760040C080FF1F08ED00E0364B38222DE9F0411A7004229A7000240622DA701C713F225C71063316
:400CC0001A70012750229C70DC701C719F7383F87E2A072283F87F2A292283F8802A552283F8814A83F8842A5A2283F8852A0A2283F8864A83F8884A83F8894A83F88A2A2C
:400D0000432283F88B2A00F033FD80461D4E1E4D3378442243F0030333702B78032043F003032B70194B1A7000F044FB3378404603F0FC0333702B7803F0FC032B7000F0D8
:400D40001BFD134B58221A70052502225C7020469D71DA711C725C7200F022FA42F6AB120C4B394628461A6000F026FA3946862000F090FABDE8F04107491D2000F022BB26
:400D8000004E0040F8460040F94600409258004094580040C881FF1F1110000070B5244D244E00240123102033702C7000F068FA102000F0DFFA07211D2000F011FB1E4BF6
:400DC00004221A701D4A5C701C72137843F0180313701B4B0A221C7083F8F54283F8F642133B1A705B225C70DC701A725E225A725C731422A3F67F231A700F232B7147F689
:400E000002736B80337815F823200E4B1A70337805EB830333F8022C0B4B1A803378AC71012B03D1BDE87040FFF73CBF70BD00BFAC81FF1FD080FF1F96580040075B004087
:400E4000935800400E4E00400C4E004070B500F08FFC294B294D1B78294B2A4C1A78064642F001021A701A78032042F010021A701A7C42F001021A741A7C42F010021A7429
:400E80002B78214A43F002032B70237843F002032370137843F00303137000F08BFA2B781A4A03F0FD032B702378304603F0FD032370137843F006031370154B7A221A7033
:400EC000144A137843F002031370137C43F002031374537843F001035370537C43F0010353740D4A4FF000531360A2F5C0721360BDE8704000F040BCD080FF1FF8460040A9
:400F0000AA430040F9460040915800407758004082580040A143004080E200E010B5064CE3792BB9237A0BB9FFF738FF0123E371BDE81040FFF78ABFAC81FF1F024A13789A
:400F400043F0010313707047004E0040074A0849937913B11378DBB202E00B7803F00103012B01D00028F3D018467047AC81FF1F014E0040104B114A1B78114903F0030319
:400F8000012B03D81388088880B20DE0022B08D10C4B10880A781B781B0243EA0040104304E00888138880B240EA0340064B9A790AB100221A707047144E0040124E004087
:400FC000104E0040114E0040AC81FF1F014BD860704700BFAC81FF1F014B1860704700BFC881FF1F38B5084B084ADB681568C01A01F0B4F90446284601F0B0F901462046BA
:4010000001F0B4FA38BD00BFAC81FF1FC881FF1F70470000044A4000137800F0020003F0FD0303431370704750510040044A137843F008031370137C43F0080313747047F0
:40104000A8430040054B00F002001A7802F0FD021A701A7810431870704700BF2C580040014B1870704700BF835B0040064B074A1B78C3F3810303F19243063393F8383182
:40108000DBB21370704700BF2C5800400B460040054B00F00C001A7802F0F3021A701A7810431870FFF7E2BF2C58004008B5064A0023137004205370FFF7EAFFBDE80840D8
:4010C0000220FFF7BFBF00BF2C58004008B506490B781BB9FFF7EAFF01230B70FFF7A6FF024B64221A7008BDBC81FF1F835B0040014B1870704700BF72640040024B187883
:40110000C0F38000704700BF51510040044AC000137800F0080003F0F70303431370704750510040044A4001137800F0200003F0DF0303431370704750510040044A13780C
:4011400003F07F0343EAC010C0B21070704700BF50510040024B1878C0F30010704700BF01510040024B1878C0F38000704700BF01510040024B187800F00100704700BFB0
:401180000151004008B50020FFF7C2FB0120FFF7BFFB024BFF221A7008BD00BFD180FF1F10B50446FFF7EEFF2046FFF7A3FB014B1C7010BDD180FF1FF0B52B4B2B4E1F7826
:4011C000328807F0070792B290424BD0284D2C78E4B26FB932B158B91A7842F040021A703080F0BD30801A7802F0BF021A70F0BD14F0010421D01F4F1F4B00264FF0010ED5
:401200001E7087F800E03E7117F8086C06F07F0607F8086C144E3678360700D568B9174E328007221A701A7812F00102FBD12B7803F0FE032B70104B1A702B780C4ADD073D
:401240000BD50E4B0029188014BF03220122013B1A701A78D207FCD4F0BD044B188013781C431470F0BD00BF8240004080400040A243004010400040014000400240004030
:40128000034A00F0F800137803431370704700BF824000402DE9F041304C314E94F800C035880CF0070CADB2A842A646374653D02C4B1A78D2B2BCF1000F0FD13DB168B9C6
:4012C000237843F0400323703080BDE8F0813080237803F0BF032370BDE8F08102F0020202F0FF061AB3DFF888C01F4A00244FF0020814708CF800800CF8044C1CF80C4CE4
:4013000004F07F040CF80C4C9EF80040240700D568B9164C258007241470147814F00104FBD11A7802F0FD021A700F4A14701B780C4A9C070CD50D4B0029188014BF032264
:401340000122013B1A701A78D207FCD4BDE8F0813880137833431370BDE8F0810641004004410040A1430040014000400240004014400040034A00F0F80013780343137091
:40138000704700BF0641004038B50446084DB4F5004F05D9286800F0E3F9A4F50044F6E7034B58686043BDE8384000F0D9B900BFD480FF1F024B1B7A584300F0D1B900BF81
:4013C000D480FF1F054A00F01F00126800F1100352F8230042F82310704700BF08ED00E000F01F0000F16040490100F56440C9B201707047044A137843F001031370137C32
:4014000043F0010313747047A8430040054B00F002001A7802F0FD021A701A7810431870704700BF20580040014B1870704700BF805B0040064B074A1B78C3F3810303F15A
:401440009243063393F82031DBB21370704700BF2058004008460040054B00F00C001A7802F0F3021A701A7810431870FFF7E2BF2058004008B5064B002119700420597006
:40148000FFF7EAFFBDE808400846FFF7BFBF00BF2058004010B5064C23781BB9FFF7EAFF01232370FFF7A6FF024BFF221A7010BDBD81FF1F805B004010B500F059F9214AC2
:4014C000044613780A2043F001031370137C43F00103137412F80A3C43F0010302F80A3C937943F00103937102F5AA521832137843F003031370144B18221A7013F8012CF9
:4015000042F0400203F8012C13F8012C02F0FC0203F8012CC82203F8062CA3F597530222123B1A70094A137843F008031370FFF741FF074B01222046BDE810401A6000F01C
:401540001BB900BFAB43004006590040275B004080E200E0082804D00A280CBF8223C22300E0422308380E4AC0B20428137098BF0C4B4FF0000298BF33F910100A4B88BF50
:4015800011461A8042F210734B434FF4006103F5806393FBF1F305490B60054B1A80704702590040444D0000D681FF1FD081FF1FCC81FF1F08B5102000F086F8072100208C
:4015C000FFF70EFF07490020FFF7FCFE064A0C20137843F006031370FFF7BCFF034B00221A8008BDC516000001590040D481FF1F10B5054C23781BB9FFF7DCFF012323704D
:40160000BDE81040FFF758BFBE81FF1F024A137843F00103137070470059004010B5084B1C7814F0010403D10028F9D0002404E02046FFF7BFFE024B1B78204610BD00BFFD
:4016400001590040034A044B1B881088181A00B2704700BFCC81FF1FA05B0040014B1880704700BFD481FF1F0A235843014B1860704700BFD081FF1F0E4A38B513881BB20E
:4016800023B114880A2324B25C4301E00A4B1C680A4B1B88C01A00B200F060FE084900F0B1FE0546204600F059FE0146284600F05DFF38BDD681FF1FD081FF1FD481FF1F57
:4016C0000000204170470000034A00F0F800137803431370704700BF02410040024B1878C0F30010704700BF51510040704738B505460078012428B100F042F8285D01340F
:40170000E4B2F8E738BD000038B50446054D0309E85C04F00F0400F033F8285DBDE8384000F02EB84E4D000010B50446000AFFF7EBFFE0B2BDE81040FFF7E6BF08B50D202C
:4017400000F01EF8BDE808400A2000F019B80000024B187800F00100704700BF315100400230800803D000BF01380046FCD17047EFF3108072B6704780F31088704700BF64
:40178000FEB5494652465B460EB40746244909688A46244A12682448022100F047F8030020480068C018204900F040F8143883460121C9430C4601250026FFF7D9FF814699
:4017C00051460B7823400B7058460130FFF7C8FF3800F04028400B78234003430B705846FFF7BEFF0136072EF2D9002001300138013001200B78234003430B705846043011
:40180000FFF7AEFF4846FFF7B7FF00BF00BF00BF0EBC894692469B46FEBD00BFAFF30080E480FF1FE080FF1F00C20100002902D0B0FBF1F0704708B14FF0FF3000F008B8C8
:401840000029F8D00246B0FBF1F000FB11217047704700BF81F0004102E000BF83F0004330B54FEA41044FEA430594EA050F08BF90EA020F1FBF54EA000C55EA020C7FEA9A
:40188000645C7FEA655C00F0E2804FEA5454D4EB5555B8BF6D420CDD2C4480EA020281EA030382EA000083EA010180EA020281EA0303362D88BF30BD11F0004F4FEA013138
:4018C0004FF4801C4CEA113102D0404261EB410113F0004F4FEA03334CEA133302D0524263EB430394EA050F00F0A780A4F10104D5F1200E0DDB02FA0EFC22FA05F28018A8
:4019000041F1000103FA0EF2801843FA05F359410EE0A5F120050EF1200E012A03FA0EFC28BF4CF0020C43FA05F3C01851EBE37101F0004507D54FF0000EDCF1000C7EEB99
:4019400000006EEB0101B1F5801F1BD3B1F5001F0CD349085FEA30004FEA3C0C04F101044FEA445212F5800F80F09A80BCF1004F08BF5FEA500C50F1000041EB045141EAAC
:40198000050130BD5FEA4C0C404141EB010111F4801FA4F10104E9D191F0000F04BF01460020B1FA81F308BF2033A3F10B03B3F120020CDA0C3208DD02F1140CC2F10C02B4
:4019C00001FA0CF021FA02F10CE002F11402D8BFC2F1200C01FA02F120FA0CFCDCBF41EA0C019040E41AA2BF01EB0451294330BD6FEA04041F3C1CDA0C340EDC04F11404E2
:401A0000C4F1200220FA04F001FA02F340EA030021FA04F345EA030130BDC4F10C04C4F1200220FA02F001FA04F340EA0300294630BD21FA04F0294630BD94F0000F83F4DA
:401A4000801306BF81F480110134013D4EE77FEA645C18BF7FEA655C29D094EA050F08BF90EA020F05D054EA000C04BF1946104630BD91EA030F1EBF0021002030BD5FEAF4
:401A8000545C05D14000494128BF41F0004130BD14F580043CBF01F5801130BD01F0004545F0FE4141F470014FF0000030BD7FEA645C1ABF194610467FEA655C1CBF0B460B
:401AC000024650EA013406BF52EA033591EA030F41F4002130BD00BF90F0000F04BF0021704730B54FF4806404F132044FF000054FF0000150E700BF90F0000F04BF002119
:401B0000704730B54FF4806404F1320410F0004548BF40424FF000013EE700BF42004FEAE2014FEA31014FEA02701FBF12F07F4393F07F4F81F06051704792F0000F14BF21
:401B400093F07F4F704730B54FF4607401F0004521F0004120E700BF50EA010208BF704730B54FF000050AE050EA010208BF704730B511F0004502D5404261EB41014FF435
:401B8000806404F132045FEA915C3FF4DCAE4FF003025FEADC0C18BF03325FEADC0C18BF033202EBDC02C2F1200300FA03FC20FA02F001FA03FE40EA0E0021FA02F1144425
:401BC000C1E600BF70B54FF0FF0C4CF4E06C1CEA11541DBF1CEA135594EA0C0F95EA0C0F00F0DEF82C4481EA030621EA4C5123EA4C5350EA013518BF52EA033541F480111D
:401C000043F4801338D0A0FB02CE4FF00005E1FB02E506F00042E0FB03E54FF00006E1FB03569CF0000F18BF4EF0010EA4F1FF04B6F5007F64F5407404D25FEA4E0E6D4134
:401C400046EB060642EAC62141EA55514FEAC52040EA5E504FEACE2EB4F1FD0C88BFBCF5E06F1ED8BEF1004F08BF5FEA500E50F1000041EB045170BD06F0004646EA010164
:401C800040EA020081EA0301B4EB5C04C2BFD4EB0C0541EA045170BD41F480114FF0000E013C00F3AB8014F1360FDEBF002001F0004170BDC4F10004203C35DA0C341BDC5D
:401CC00004F11404C4F1200500FA05F320FA04F001FA05F240EA020001F0004221F0004110EBD37021FA04F642EB06015EEA430E08BF20EAD37070BDC4F10C04C4F120055A
:401D000000FA04F320FA05F001FA04F240EA020001F0004110EBD37041F100015EEA430E08BF20EAD37070BDC4F1200500FA05F24EEA020E20FA04F301FA05F243EA0203C1
:401D400021FA04F001F0004121FA04F220EA020000EBD3705EEA430E08BF20EAD37070BD94F0000F0FD101F00046400041EB010111F4801F08BF013CF7D041EA060195F0BF
:401D8000000F18BF704703F00046520043EB030313F4801F08BF013DF7D043EA0603704794EA0C0F0CEA135518BF95EA0C0F0CD050EA410618BF52EA4306D1D181EA030136
:401DC00001F000414FF0000070BD50EA410606BF1046194652EA430619D094EA0C0F02D150EA013613D195EA0C0F05D152EA03361CBF104619460AD181EA030101F000412A
:401E000041F0FE4141F470014FF0000070BD41F0FE4141F4780170BD70B54FF0FF0C4CF4E06C1CEA11541DBF1CEA135594EA0C0F95EA0C0F00F0A7F8A4EB050481EA030E4F
:401E400052EA03354FEA013100F088804FEA03334FF0805545EA131343EA12634FEA022245EA111545EA10654FEA00260EF000419D4208BF964244F1FD0404F5407402D2E8
:401E80005B084FEA3202B61A65EB03055B084FEA32024FF480104FF4002CB6EB020E75EB030E22BFB61A754640EA0C005B084FEA3202B6EB020E75EB030E22BFB61A7546F6
:401EC00040EA5C005B084FEA3202B6EB020E75EB030E22BFB61A754640EA9C005B084FEA3202B6EB020E75EB030E22BFB61A754640EADC0055EA060E18D04FEA051545EA17
:401F000016754FEA06164FEAC30343EA52734FEAC2025FEA1C1CC0D111F4801F0BD141EA00014FF000004FF0004CB6E711F4801F04BF01430020B4F1FD0C88BFBCF5E06FEE
:401F40003FF6AFAEB5EB030C04BFB6EB020C5FEA500C50F1000041EB045170BD0EF0004E4EEA113114EB5C04C2BFD4EB0C0541EA045170BD41F480114FF0000E013C90E631
:401F800045EA060E8DE60CEA135594EA0C0F08BF95EA0C0F3FF43BAF94EA0C0F0AD150EA01347FF434AF95EA0C0F7FF425AF104619462CE795EA0C0F06D152EA03353FF4FC
:401FC000FDAE1046194622E750EA410618BF52EA43067FF4C5AE50EA41047FF40DAF52EA43057FF4EBAE12E74FF0FF3C06E000BF4FF0010C02E000BF4FF0010C4DF804CD10
:402000004FEA410C7FEA6C5C4FEA430C18BF7FEA6C5C1BD001B050EA410C0CBF52EA430C91EA030F02BF90EA020F0020704710F1000F91EA030F58BF994208BF90422CBF1D
:40204000D8176FEAE37040F0010070474FEA410C7FEA6C5C02D150EA013C07D14FEA430C7FEA6C5CD6D152EA033CD3D05DF8040B704700BF8446104662468C46194663460A
:4020800000E000BF01B5FFF7B7FF002848BF10F1000F01BD4DF808EDFFF7F4FF0CBF012000205DF808FB00BF4DF808EDFFF7EAFF34BF012000205DF808FB00BF4DF808ED3E
:4020C000FFF7E0FF94BF012000205DF808FB00BF4DF808EDFFF7CEFF94BF012000205DF808FB00BF4DF808EDFFF7C4FF34BF012000205DF808FB00BF4FEA410212F50012E5
:4021000015D211D56FF47873B3EB625212D94FEAC12343F0004343EA505311F0004F23FA02F018BF404270474FF00000704750EA013005D111F0004008BF6FF000407047E0
:402140004FF00000704700BF4FEA4102B2F1E04324BFB3F5001CDCF1FE5C0DD901F0004C4FEAC0024CEA5070B2F1004F40EB830008BF20F00100704711F0804F21D113F191
:402180003872BCBF01F00040704741F480114FEA5252C2F11802C2F1200C10FA0CF320FA02F018BF40F001004FEAC1234FEAD32303FA0CFC40EA0C0023FA02F34FEA43038E
:4021C000CCE77FEA625307D150EA01331EBF4FF0FE4040F44000704701F0004040F0FE4040F40000704700BF80F0004002E000BF81F0004142001FBF5FEA410392EA030FBC
:402200007FEA226C7FEA236C6AD04FEA1262D2EB1363C1BFD218414048404140B8BF5B42192B88BF704710F0004F40F4000020F07F4018BF404211F0004F41F4000121F009
:402240007F4118BF494292EA030F3FD0A2F1010241FA03FC10EB0C00C3F1200301FA03F100F0004302D5494260EB4000B0F5000F13D3B0F1807F06D340084FEA310102F129
:402280000102FE2A51D2B1F1004F40EBC25008BF20F0010040EA03007047490040EB000010F4000FA2F10102EDD1B0FA80FCACF1080CB2EB0C0200FA0CF0AABF00EBC2502D
:4022C00052421843BCBFD0401843704792F0000F81F4000106BF80F400000132013BB5E74FEA41037FEA226C18BF7FEA236C21D092EA030F04D092F0000F08BF0846704714
:4023000090EA010F1CBF0020704712F07F4F04D1400028BF40F00040704712F100723CBF00F50000704700F0004343F0FE4040F4000070477FEA226216BF08467FEA2363C4
:402340000146420206BF5FEA412390EA010F40F4800070474FF0000304E000BF10F0004348BF40425FEA000C08BF704743F0964301464FF000001CE050EA010208BF70479E
:402380004FF000030AE000BF50EA010208BF704711F0004302D5404261EB41015FEA010C02BF84460146002043F0B64308BFA3F18053A3F50003BCFA8CF2083AA3EBC253F6
:4023C00010DB01FA02FC634400FA02FCC2F12002BCF1004F20FA02F243EB020008BF20F00100704702F1200201FA02FCC2F1200250EA4C0021FA02F243EB020008BF20EA43
:40240000DC7070474FF0FF0C1CEAD0521EBF1CEAD15392EA0C0F93EA0C0F6FD01A4480EA010C400218BF5FEA41211ED04FF0006343EA501043EA5111A0FB01310CF0004064
:40244000B1F5000F3EBF490041EAD3715B0040EA010062F17F02FD2A1DD8B3F1004F40EBC25008BF20F00100704790F0000F0CF0004C08BF49024CEA502040EA51207F3ADA
:40248000C2BFD2F1FF0340EAC250704740F400004FF00003013A5DDC12F1190FDCBF00F000407047C2F10002410021FA02F1C2F1200200FA02FC5FEA310040F1000053EA93
:4024C0004C0308BF20EADC70704792F0000F00F0004C02BF400010F4000F013AF9D040EA0C0093F0000F01F0004C02BF490011F4000F013BF9D041EA0C018FE70CEAD153E4
:4025000092EA0C0F18BF93EA0C0F0AD030F0004C18BF31F0004CD8D180EA010000F00040704790F0000F17BF90F0004F084691F0000F91F0004F14D092EA0C0F01D142029D
:402540000FD193EA0C0F03D14B0218BF084608D180EA010000F0004040F0FE4040F40000704740F0FE4040F4400070474FF0FF0C1CEAD0521EBF1CEAD15392EA0C0F93EAAA
:402580000C0F69D0A2EB030280EA010C49024FEA402037D04FF0805343EA111143EA10130CF000408B4238BF5B0042F17D024FF4000C8B4224BF5B1A40EA0C00B3EB510F6D
:4025C00024BFA3EB510340EA5C00B3EB910F24BFA3EB910340EA9C00B3EBD10F24BFA3EBD10340EADC001B0118BF5FEA1C1CE0D1FD2A3FF650AF8B4240EBC25008BF20F05D
:40260000010070470CF0004C4CEA50207F32C2BFD2F1FF0340EAC250704740F400004FF00003013A37E792F0000F00F0004C02BF400010F4000F013AF9D040EA0C0093F09D
:40264000000F01F0004C02BF490011F4000F013BF9D041EA0C0195E70CEAD15392EA0C0F08D142027FF47DAF93EA0C0F7FF470AF084676E793EA0C0F04D14B023FF44CAF0D
:4026800008466EE730F0004C18BF31F0004CCAD130F000427FF45CAF31F000437FF43CAF5FE700BF4FEA4002B2F1FE4F0FD34FF09E03B3EB12620DD94FEA002343F000438E
:4026C00010F0004F23FA02F018BF404270474FF00000704712F1610F01D1420205D110F0004008BF6FF0004070474FF000007047014B1868704700BF5081FF1F0E4B70B515
:402700001E460E4C0025E41AA410A54204D056F8253098470135F8E702F0D0FB084B094C1E46E41AA4100025A54204D056F8253098470135F8E770BDC84E0000C84E000067
:40274000C84E0000D04E000003460244934202D003F8011BFAE770472DE9F04788B0149F002B1E461299B8BF03F1004327F02007B6BF1E4600232D23462F1446109DDDF845
:402780004CA00B7003D0452F03D1013501E0032300E0022307AA049206AA03928DE828042246334600F004FD472F804602D1119BDB0728D5462F08EB050911D198F80030A4
:4027C000302B0AD10022002320463146FFF762FC18B9C5F10105CAF80050DAF8003099440022002320463146FFF754FC08B9302202E0CDF81C9006E0079B994503D9591C2A
:4028000007911A70F8E74046079B159AC8EB0303136008B0BDE8F087034673B50029B8BF494203F8022BB4BF2D222B22092942701ADD0DF1070216460A2591FBF5F405FB0B
:402840001411092C01F1300102F8011D2146F4DC3031541E02F8011CB4421A460AD214F8012B03F8012BF7E71A463024214402F8024B5970101A02B070BD00002DE9F04FAC
:4028800091B00C46DDF8688016461F46054601F027FA03681846099300F0F4FB00230E93D8F800300A90073323F0070303F1080294F81890D4F800B0C8F80020D3E9002344
:4028C000C4E91223D4F84CA0D4F848802AF000430B934FF0FF32A74B40460B9901F05EFFA0B94FF0FF32A34B40460B99FFF7E6FB60B90022002340465146FFF7D5FB10B11B
:402900002D2384F843309C4B9C4A0AE0424653464046514601F042FF002800F09281984B984AB9F1470F8CBF90469846032323612BF0040323604FF0000A3DE0B9F1670F6D
:4029400000F08A81B9F1470F00F0868123600193636800210DF13302059002920093424653460691CDF81090CDF80CE02846FFF7F3FE09F0DF03472B804600F08481B9F19E
:40298000650F0D9900F28D8101394A4604F150000D91FFF741FF0E9A82468318012A236100F37C812268D10700F178819DF8333013B12D2384F84330009733460FAA2146F9
:4029C000284600F09FF9013002D14FF0FF3096E123685A0501D4236965E0B9F1650F40F2D580D4E9120100220023FFF753FB78B30123654A31462846B8470130E5D00E9BF9
:402A00000D9A9A420BDB2368D80708D423689B0740F111814FF0000804F1190906E10A9B099A31462846B8470130CED04FF0000804F11A090E9B013B9845E7DA01234A4621
:402A400031462846B8470130BFD008F10108F1E70D9B002B29DC01234B4A31462846B8470130B2D00D9B23B90E9B13B92368D907CCD50A9B099A31462846B8470130A4D0DA
:402A80004FF0000904F11A0A0D9B5B42994509DA0123524631462846B847013095D009F10109F1E70E9B4246A7E00E9AA36D9A42A8BF1A46002A914606DC4FF0000A29EA4B
:402AC000E97904F11A0B11E01346314642462846B8470130F1D178E701235A4631462846B84701303FF471AF0AF1010AA36DC9EB03029245F0DB08EB03090D9A0E9B9A428A
:402B00000FDB2368DA070CD40E9B0D9A9844C9EB08089B1A9845A8BF9846B8F1000F08DC0FE00A9B099A31462846B8470130EBD14BE743464A4631462846B84701303FF461
:402B400044AF4FF0000928EAE87804F11A0A09E00123524631462846B84701303FF435AF09F101090D9A0E9B9B1AC8EB03039945EEDB4BE7FFFFEF7F614D0000654D000057
:402B8000694D00006D4D0000714D00000E9A012A01DCDB0738D50123424631462846B84701303FF412AF0A9B099A31462846B84701303FF40AAFD4E9120100220023FFF73F
:402BC00069FA20B14FF0000804F11A090EE00E9B08F10102013B19E001234A4631462846B84701303FF4F1AE08F101080E9B013B9845F1DB534604F1500231462846B8478B
:402C000001307FF403AFE0E64246012331462846B8470130EED1D8E601234A4631462846B84701303FF4D1AE08F10108E3680F9A9B1A9845F0DBE0680F9B9842B8BF1846CB
:402C40005DE062680EA8531C0DF1340E4BF480637FF474AE062201E012B90122626075E6002106910DF133018DE80C00236005904246CDF81090CDF80CE002915346284662
:402C8000FFF76AFD80460D9BD81C02DB626893421DDDA9F102095FFA89F970E60133236184E6B9F1660F14D10029636807DD216113B92268D2071DD501330B4419E013B920
:402CC0002268D00701D5023313E0012311E04FF067090D9B0E9A934205DB22682361D10708D5013305E0002BD4BFC3F102030123134423610D9B4FF0000AA36556E611B064
:402D0000BDE8F08F2DE9F04791461F460A698B6806469342B8BF1346C9F8003091F843200C46DDF8208012B10133C9F800302368990642BFD9F800300233C9F80030256824
:402D400015F0060510D104F1190A07E00123524639463046C04701301AD00135E368D9F800209B1A9D42F1DB94F843302268003318BF012392060FD5E118302081F8430086
:402D80005A1C94F845102244023382F8431003E04FF0FF30BDE8F08704F1430239463046C0470130F4D02268D9F80050E36802F00602042A08BF5D1B2269A3680CBF25EAEF
:402DC000E57500259342C4BF9B1AED184FF000091A344D4509D00123224639463046C0470130D5D009F10109F3E70020BDE8F0872DE9F04317460A7E85B06E2A98460646A4
:402E00000C460C9B01F1430E00F0AE8011D8632A22D009D8002A00F0BB80582A40F0CA8081F84520834955E0642A1ED0692A1CD0C0E0732A00F0B08009D86F2A2ED0702A55
:402E400040F0B8800A6842F020020A603EE0752A24D0782A3AD0ADE01A6801F14205111D1960136884F84230A8E021681A6811F0800F02D0111D196008E011F0400F02F13E
:402E80000401196002D0B2F9003000E01368002B3CDA2D225B4284F8432037E021681A6811F0800F02D0111D196007E011F0400F02F10401196001D0138800E01368227E46
:402EC0005C496F2A14BF0A2208221BE078225A4984F845202268186812F0800F00F104051D6003D1550601D5038800E00368D00744BF42F0200222601BB9226822F0200223
:402F000022601022002084F8430001E049490A226568002DA56008DB206820F0040020602BB9002D7DD175460CE0002B79D07546B3FBF2F002FB1033CB5C05F8013D0346B1
:402F40000028F5D1082A0BD12368DA0708D5236962689A42DEBF302305F8013C05F1FF35C5EB0E0323612EE008681A6810F0800F496903D0101D1860136808E010F0400FD6
:402F800002F104001860136801D0198000E0196000232361754616E01A68111D1960156800216268284600F0A7FE08B1401B6060636804E004F1420584F842200123236133
:402FC000002384F84330CDF800803B4603AA21463046FFF797FE013002D14FF0FF3026E023692A4639463046C0470130F5D023689B0710D5002504F1190907E001234A4695
:4030000039463046C0470130E7D00135E368039A9B1A9D42F2DBE068039B9842B8BF184605E00B7804F1420584F842308AE705B0BDE8F083734D0000844D00000EB400B5C0
:403040004FF402719CB0ADF814106FF00041049107914FF6FF711DAB02900690084853F8042BADF81610006802A9019301F044FA029B00221A701CB05DF804EB03B07047E5
:403080005081FF1F034613F8012B002AFBD1181A013870472DE9F74F03690C6980469C427FDC013C01F114074FEA840E00F1140606EB0E0357F82450019356F824300135FC
:4030C000B3FBF5F507EB0E09C5B34FF0000A3846B446D34650F8043B9AB205FB02A21B0C4FEA124A05FB03A392B2C2EB0B0BBCF800204FEA134A5A441FFA83FBDCF800305A
:403100008145CBEB134303EB224392B242EA03424FEA234B4CF8042BDCD256F80E306BB9019B043B9E421A4602D3C8F8104005E01268043B002AF8D1013CF3E7404601F01E
:4031400000F800282BDB304601354FF0000E57F8042B036891B2C1EB0E0E120C99B27144C2EB134303EB214389B24FEA234EB94541EA034340F8043BE9D256F8242006EBC0
:40318000840362B9043B9E421A4602D3C8F8104005E01268043B002AF8D1013CF3E7284600E0002003B0BDE8F08F0000000000002DE9F04F456A95B08246219CCDE9022373
:4031C00045B9102000F090FDCAF82400456085600560C560DAF82430196859B15A68012393404A608B60504600F0D4FDDAF8243000221A60039BA04A002BBDBF012323603C
:40320000039B0023BCBF23F000430393DDF80C80A8BF236028F000431B0D1B0593421DD142F20F73209A1360029B43B9934A944BC8F31300002814BF1846104600E0904848
:40324000229B002B00F04685C37813B100F1080300E0C31C229A136000F03CBDDDE902450022002320462946FEF714FF074658B1209A01231360229B002B00F01E858148BF
:403280001860013800F026BD12AB019313AB009322462B46504600F0CFFFC8F30A56049056B1C5F3130343F07F51204641F44011A6F2FF3611971DE0139B129E1E4406F21E
:4032C0003243202B0ADD029A06F21240C3F1400322FA00F008FA03F3184304E0C3F12000029B03FA00F0FEF7F7FB0123A1F1F871013E11930022644BFEF7B0FA58A3D3E999
:403300000023FEF75FFC58A3D3E90023FEF7A8FA044630460D46FEF7EFFB55A3D3E90023FEF750FC02460B4620462946FEF798FA04460D46FEF7E0FE0022834600232046C6
:403340002946FEF7B1FE58B15846FEF7D5FB02460B4620462946FEF79DFE08B90BF1FF3BBBF1160F0DD8DDE90223484901EBCB01D1E90001FEF7B6FE30B10BF1FF3B002351
:4033800000E00123109300E01090129B9E1B731E079343BFC3F10008002307934FF00008BBF1000F06DB079BCDF82CB05B440793002705E00023CBEB0808CBF100070B9325
:4033C0001E9B092B28D8052BC4BF043B1E931E9BC8BF0025A3F10203D8BF0125032B20D8DFE803F0060E0204012302E0012308E000230A931F9B002B1DDD9946059321E05F
:4034000000230A931F9B0BEB030909F10103012B0593B8BF012315E0012500231E930A9501E001230A934FF0FF390022CDF8149012231F9206E04FF001094B46CDF8149072
:40344000CDF87C90DAF8244000226260042101F114029A421CD86268490001326260F6E761436F63A787D23FB3C8608B288AC63FFB799F501344D33F0000F07F954D000090
:403480009E4D0000724D00000000F83FA84D00006168504600F049FCDAF8243020601B680693059B0E2B00F25B81002D00F05881DDE90234BBF1000FCDE90E3430DD9F4A9E
:4034C0000BF00F034FEA2B1502EBC303E80618CBCDE908340CD5DDE90E01994B05F00F05D3E90823FEF798FC0324CDE9020100E00224934E6DB1E90708D5DDE90801D6E97D
:403500000023FEF75FFBCDE9080101346D100836F0E7DDE90823DDE90201FEF77DFC20E0CBF1000505B3DDE90E01844B05F00F0203EBC203D3E90023FEF744FBCDE90201C9
:403540007F4E2D110023022455B1EA0705D5D6E90023FEF737FB013401236D100836F3E71BB1CDE9020100E00224109BE3B1DDE902560022734B28463146FEF795FD98B1B2
:40358000059B8BB1B9F1000F40F3E6800BF1FF330893314600226C4B2846FEF713FB0134CDE902014E4602E0059ECDF820B02046FEF7A2FADDE90223FEF704FB634B002211
:4035C000FEF74EF9A1F1507304460C931D46D6B9DDE9020100225E4BFEF740F922460C9BCDE90201FEF77EFD002840F03F820C99224601F10043DDE90201FEF755FD0028D2
:4036000040F02B82A8E00A9A4C4B711E002A49D003EBC103D3E9002300204E49FEF7FCFB22462B46FEF71AF9CDE90C01069CDDE90201FEF761FD0546FEF75EFA02460B4651
:40364000DDE90201FEF70AF9DDE90C23303504F8015BCDE90201FEF727FD002840F01D83DDE9022300203749FEF7F8F8DDE90C23FEF71AFD002840F0D180069BE31AB34260
:403680006ADADDE90C0100222F4BFEF79BFA0022CDE90C01DDE902012B4BFEF793FACDE90201C4E703EBC1012246D1E900012B46FEF788FA069BCDE90C011D469C19DDE9C6
:4036C0000201FEF719FD0646FEF716FA02460B46DDE90201FEF7C2F8303605F8016BAC42CDE902014FF0000222D11A4BDDE90C01FEF7B6F802460B46DDE90201FEF7F2FC90
:40370000002840F08B80DDE90C2300201149FEF7A5F802460B46DDE90201FEF7C5FCD8B114F8013C621E302B40F0B7821446F7E7054BFEF747FACDE90201C0E7A84D0000E4
:40374000804E00000000F03F0000244000001C40000014400000E03FDDE90E34CDE90234139B002B7CDBBBF10E0F79DCAB4B03EBCB03D3E900671F9B002B14DA059B002B64
:4037800011DC40F06C810022A54B30463946FEF719FADDE90223FEF79BFC059D2E46002840F05F8165E1069CDDE9028932463B4640464946FEF730FBFEF79EFC0546FEF7F5
:4037C0009BF932463B46FEF7FDF90B46024649464046FEF743F805F1300E069B04F801EBC3EB040E059B73452DD102460B46FEF737F88046894602460B4630463946FEF7CB
:4038000053FC78B942464B4630463946FEF742FC002800F04482EB0704D440E2DDF820B000E01C4614F8012C631E392A07D1069A9A42F6D1069930220BF1010B0A701A78D9
:4038400001321A702BE20022764BFEF7BBF90022002380468946FEF71DFC0028A6D01EE20A9A002A2BD01E9A012A0ADC119A12B103F2334302E0129BC3F136033D46444678
:4038800013E0059B5D1EAF42BFBF0B9BEA1B9B180B93059BB6BF2F467D1B0025002BA7BF4446059BC3EB08040023079A01211A4450469844079200F00CFB064602E03D46DC
:4038C00044460A9E5CB1079B002B08DDA342A8BF2346079AC3EB0808E41AD31A0793002F1DDD0A9BABB18DB131462A46504600F089FB049A01460646504600F0F3FA0499A4
:403900000890504600F046FA089B04937A1B06D000E03A460499504600F074FB04900121504600F0D6FA0B9B05465BB31A460146504600F067FB1E9B0546012B18DC029B37
:4039400083B9039BC3F3130373B9039B23F000473F0D3F054FB1079B08F1010801330793012702E0002700E0029F0B9B73B100E000272B6905EB8303186900F05DFAC0F175
:40398000200004E01E9B012BD9DD0B9F0120079B184410F01F0008D0C0F12003042B02DDC0F11C0002E006D018461C30079B8044034404440793B8F1000F05DD4246049949
:4039C000504600F06DFB0490079B002B05DD29461A46504600F064FB0546109B23B32946049800F0AEFB00281EDA00230A220499504600F0E6F90A9B0BF1FF3B0490002B67
:403A000000F05F81314600230A22504600F0D9F9B9F1000F06463FDC3BE000BFA84D00000000144000002440059B002B2BDC1E9B022B28DDDDF81490B9F1000F11D12946B1
:403A40004B460522504600F0BCF901460546049800F077FB00280CDC03E0354600E000252E461F9B069C6FEA030B09E03546DDF820B0069B069A5C1C312313700BF1010B78
:403A800005960026F7E00A9BDDF8149023B9069CB2E01E9B022BCFDC002C05DD31462246504600F0FDFA06469FB17168504600F03CF90446326906F10C01023292000C302A
:403AC00000F028F901222146504600F0E9FA059000E00596029B069F03F00103079329460498FFF7D7FA3146044600F13008049800F027FB059A02902946504600F03DFB17
:403B0000C36802463BB901460A90049800F019FB0A9A034600E00123114650460A9300F039F90A9B53B91E9A42B9079A32B9B8F1390F2AD0029B002B1CDC1DE0029A002AA2
:403B400004DB1BD11E9ACAB9079ABAB9002B13DD01220499504600F0A3FA2946049000F0F0FA002803DC07D118F0010F04D0B8F1390F0AD004F131087C1C0CE0002B07F1E5
:403B800001040BDDB8F1390F03D139233B70013756E008F1010887F800806CE0069B2746E31A4B4504F8018C3BD000230A220499504600F006F9059B04909E424FF00A0292
:403BC0004FF000033146504604D100F0FAF80646059084E700F0F5F8002306460A220599504600F0EEF8059079E700230A220499504600F0E6F8049029460498FFF74AFAD3
:403C0000069B00F1300804F8018BE31A4B45ECDB069B0596B9F1010FACBF4B4401331F46002601220499504600F03AFA2946049000F087FA002803DC15D118F0010F12D05A
:403C40003C4614F8013C621E392B09D1069B934204D10BF1010B3123069A02E01446F0E70133137007E03C4614F8013C621E302B01D11446F8E72946504600F08BF8059BFA
:403C80006BB12EB19E4203D03146504600F082F80599504600F07EF801E0DDF820B00499504600F077F80023209A23700BF101031360229B1BB11C6001E008480AE006988C
:403CC00008E0B9F1000F3FF7E2AE1E9B022B7FF7DEAEB1E615B0BDE8F08F00BF714D0000004870475481FF1F024B0146186800F04BBB00BF5081FF1F10B5C9B20244904276
:403D0000034605D01C7801308C42F8D1184610BD002010BD10B5431E0A44914204D011F8014B03F8014FF8E710BD70B5456A04460E463DB91020FFF7D7FF606245608560DA
:403D40000560C560656AEB6843B1636ADB6853F8260078B1026843F8262017E021220421204600F0B7FA636AE860DB68002BECD1002070BD012101FA06F56A1D9200204684
:403D800000F0A8FA0028F3D04660856000230361C36070BD70B5446A06460D463CB91020FFF7A2FF7062446084600460C4603DB1736A6A68DB6853F82210296043F8225081
:403DC00070BD2DE9F04106460C460D691F4601F1140E0023DEF80000013381B202FB0171000C0F0C02FB007089B201EB00419D424FEA10474EF8041BECDCD7B1A3689D42E9
:403E000012DB616830460131FFF78FFF8046226904F10C01023292000C30FFF77BFF21463046FFF7B7FF444604EB850301355F6125612046BDE8F081030C1B0413B900045B
:403E4000102300E0002310F07F4F04BF0002083310F0704F04BF0001043310F0404F04BF80000233002803DB420003D5581C70471846704720207047036813F007020BD0D4
:403E8000D90722D49A074BBF5B089B08036003604CBF01200220704799B209B91B0C102213F0FF0F04BF1B0A0832190704BF1B090432990704BF9B080232D90702D45B0887
:403EC00005D00132036010467047002070472020704710B50C460121FFF727FF01224461026110BD2DE9F74F14460A69236988469A42BEBF0B46A0461C46D8F81070D4F89E
:403F00001090D8F80830D8F8041007EB09069E42C8BF0131FFF709FF00F114052B4605EB860C0022634502D243F8042BFAE704F1140208F1140102EB890301EB87070093D8
:403F4000009B0192934257D9B2F800B0BBF1000F23D08946AE464FF0000859F8044BBEF800A0A3B20BFB03A34FEA144ADEF8004043444FEA14480BFB0A84F24604EB13442A
:403F80009BB243EA04434F454FEA14484AF8043B01D9D646E1E7CEF80480019B0432B3F802A0BAF1000F21D02C4689462B684FF00008B9F800E0B4F802B09BB20AFB0EBE9C
:403FC000A346F04443EA08434BF8043B59F8043BB4F804E01B0C0AFB03E34F4503EB18434FEA134801D95C46E3E763600435A7E75CF8043D13B9013E002EF9DC066103B07A
:40400000BDE8F08F2DE9F843154612F0030206460F4607D0214C013A002354F82220FFF7D0FE0746AD1036D0746A3CB91020FFF75BFE7062446084600460C460D6F824805E
:40404000D8F808404CB940F271213046FFF741FF04460023C8F8080003604FF00008EB070AD5394622463046FFF73CFF814639463046FFF78FFE4F466D100CD0206808B107
:404080000446ECE7224621463046FFF72BFF2060C0F80080F4E73846BDE8F883704E00002DE9F0470C460746914626694FEA621A56444968A368751CAB4202DA01315B004B
:4040C000FAE73846FFF731FE002380461A4600F11401534503DA41F823200133F9E72AEAEA73206901EB830319F01F0904F1140101EB800E14D0C9F1200C002208689A468B
:4041000000FA09F0024343F8042B51F8042B8E4522FA0CF2F2D8CAF8042042B1B51C06E0043B51F8042B8E4543F8042FF9D8013D3846C8F810502146FFF72CFE4046BDE8C7
:40414000F08703690A6910B59B1A11D192001430143183180A4453F8044D52F8041D8C4202D007D3012010BD9842F4D3002010BD184610BD4FF0FF3010BD2DE9F8430C4683
:404180000746114620461546FFF7DBFF061E08D131463846FFF7C9FD012303614661BDE8F883BCBF23462C4638466168BABF1D4601260026FFF7B9FD2B69C660266905F11C
:4041C000140904F1140101EB860709EB830800F114054FF0000C51F8042B59F8044B93B29C44A3B2240CC3EB0C03C4EB124202EB23429BB24FEA224CC84543EA02428E4631
:4042000045F8042BE7D8BE450ED25EF8041B8AB26244131403EB114392B242EA03424FEA234C45F8042BEEE755F8043D0BB9013EFAE70661BDE8F8832DE9F3411C4601214B
:404240009046089E099DFFF770FDC4F31302C4F30A5407460CB142F480120192B8F1000F19D002A840F8088DFFF706FE009B48B1019AC0F1200102FA01F10B43C2407B6146
:40428000019200E07B61019B002B14BF02210121BB61396107E001A8FFF7EEFD019B01217B613961203034B1A4F2334404443460C0F1350009E0A0F2324007EB810330607E
:4042C0001869FFF7B9FDC0EB41102860384602B0BDE8F08138B502FB01F4214600F054F8054618B122460021FEF72EFA284638BD38B50546002944D051F8043C0C1F002BD4
:40430000B8BFE41800F017FA1E4A1368114613B96360146030E0A3420DD92268A018834201BF18685B681218226063600C6023E0A24203D813465A68002AF9D1186819188A
:40434000A1420BD12168014458188242196013D110685268014419605A600DE002D90C232B6009E021686018824201BF106852680918216062605C602846BDE8384000F0B8
:40438000DBB938BDC481FF1F70B5CD1C25F0030508350C2D38BF0C25002D064601DBA94202D90C23336046E000F0C5F9234B1C681A462146A1B10B685B1B0ED40B2B03D9AF
:4043C0000B60CC18CD501EE08C420BBF63684B681360636018BF0C4615E00C464968E9E7174C23681BB9304600F07AF920602946304600F075F9431C18D0C41C24F0030476
:40440000A0420DD12560304600F096F904F10B00231D20F00700C31A0ED05A42E25070BD211A304600F05CF90130EBD10C233360304600F081F9002070BD00BFC481FF1F41
:40444000C081FF1F2DE9F0478E6882469E420C46914698463ED88A8912F4906F3AD02568096902236F1A656905EB450595FBF3F57B1C43449D4238BF1D4653050FD5294684
:40448000FFF782FF064698B13A462169FFF742FCA38923F4906343F08003A38113E02A4600F04BF9064670B921695046FFF720FF0C23CAF80030A3894FF0FF3043F0400330
:4044C000A381BDE8F08726613E44266046466561ED1BA560464528BF464649463246206800F00EF9A36800209B1BA36023681E442660BDE8F08700002DE9F04F9DB003935F
:404500008B8980461C060D4616460DD50B695BB94021FFF739FF2860286118B90C23C8F80030CDE040236B610023099320238DF82930DFF89CB130238DF82A3037463C46C5
:4045400014F8013B1BB9B7EB060910D003E0252BF9D02746F3E74B46324629464046FFF771FF013000F0A780099B4B4409933B78002B00F0A08000234FF0FF32049307931E
:40458000059206938DF853301A930126052221784E48FFF7B1FB671C049B38B14B4A3C46801A06FA00F018430490EFE7D90644BF20228DF853201A0744BF2B228DF8532001
:4045C00022782A2A03D0079A00210A200BE0039A111D12680391002A10DA524243F00200079204900BE027463B780134303B092B03D800FB02320121F5E701B107923B785B
:404600002E2B1ED17B782A2B0AD1039B02371A1D1B680392002BB8BF4FF0FF33059310E0002319460593781C0A2407463A780130303A092A03D804FB01210123F5E703B1F5
:404640000591032239782248FFF756FB40B14023CBEB000003FA00F0049B013718430490397806221B487E1C8DF82810FFF744FB88B1194B33B9039B073323F007030833DF
:40468000039314E003AB00932A46144B04A94046FEF7F4F807E003AB00932A460F4B04A94046FEF7A5FBB0F1FF3F824603D0099B5344099342E7AB895B0601D4099801E02C
:4046C0004FF0FF301DB0BDE8F08F00BFA84E0000AE4E0000B24E00007D2800004544000038B5064C0023054608462360FCF766FA431C02D1236803B12B6038BDD881FF1F43
:40470000884210B501EB020301D8421E0BE09842FBD28118D21AD34204D013F8014D01F8014DF8E710BD994204D011F8014B02F8014FF8E710BD70477047F8B507461546B7
:404740000E4621B91146BDE8F840FFF71DBE1AB9FFF7CEFD2846F8BD00F015F885420ED929463846FFF710FE044650B131462A46FFF7D0FA31463846FFF7BAFD01E03046C8
:40478000F8BD2046F8BD51F8040C0028BEBF091851F8043CC0180438704700004FEA410C7FEA6C5C02D150EA013C0AD14FEA430C7FEA6C5C02D152EA033C02D14FF00000C1
:4047C00070474FF0010070470000000000000000534B594E45543A205472696767657265642052656C6F636B65722076312E302E204920616D206177616B652100417567CE
:4048000020313420323031390031363A35393A333600436F6D70696C6564206174202573206F6E2025732E004177616974696E672063616C6962726174696F6E2E205365B6
:404840007420537769746368203420746F202743686F6F7365272E00426567696E6E696E67206D61696E2073657175656E6365202863616C6962726174696E672C2074681F
:40488000656E20617474656D7074696E6720746F2072656C6F636B292E0053776974636820746F204C6F636B20746F20656E676167652072656C6F636B6572206F7220731B
:4048C000616D706C6520746865206572726F72207369676E616C2072616E67652E004E6F772073616D706C696E67206F75742D6F662D6C6F636B206D6178696D756D206563
:4049000072726F72207369676E616C20766F6C746167652E0053616D706C696E67206176657261676520696E2D6C6F636B204C46206F75747075742E0043616C6962726172
:4049400074696F6E20636F6D706C6574652E002D2D3E204C46206176673A20252E3366562C207365747320626F756E6473206174205B256C642C20256C645D3D5B252E33BB
:4049800066562C20252E3366565D002D2D3E204441432073776565702072616E67653A205B256C642C20256C645D3D5B6C6F776E756D2C20686967686E756D5D3D5B252E59
:4049C0003366562C20252E3366565D002D2D3E20457272206D6F6E69746F723A205B25642C2025645D3D5B252E3366562C20252E3366565D3B207468726573686F6C642057
:404A0000252E336620252E33660044657465637465642064726F70706564206C6F636B2028252E336656292E2057616974696E6720666F7220426C6F636B204C6F636B2076
:404A400054544C206C6F77206265666F72652072656C6F636B696E672E2E2E0044657465637465642064726F70706564206C6F636B2028252E336656292E20426C6F636BF0
:404A8000204C6F636B2054544C206973206C6F7720736F2049276D2072656C6F636B696E67206E6F772E0042726F6B6520667265652120256C643D25302E336620697320EC
:404AC000696E2072616E6765206F66205B256C642C20256C645D3F004661696C656420746F2072656C6F636B2025642074696D657320284D41585F4641494C535F42454675
:404B00004F52455F4C4544292E0052656C6F636B207375636365737366756C21204C46204F75747075742061742025302E336620562E00646174615B25642C25642C256403
:404B40005D3A0052756E6E696E6720696E2027323856204C6F6F702046696C74657227206D6F64652E0052756E6E696E6720696E2027323256204C6F6F702046696C7465BE
:404B80007227206D6F64652E0052756E6E696E6720696E20273856204C6F6F702046696C74657227206D6F64652E004C6F6F702066696C74657220766F6C7461676520737D
:404BC000657474696E6720636F756C64206E6F7420626520666F756E642E204973202B2F2D313556206F6E3F2052657374617274206D652E004572726F723A206D756C746B
:404C000069706C65206C6F6F702066696C74657220766F6C746167652073657474696E67732077657265206D656173757265642E20436865636B20656C656374726F6E694D
:404C40006373004D65617375726564204C46206F75747075743A20252E33662056202825356C64293B206572726F72206D6F6E69746F723A20252E336620562028253564DF
:404C800029005377656570696E672066756C6C206F75747075742072616E67652E20546F67676C65202743616C696272617465272073776974636820666F722022302D312A
:404CC0002056222E005377656570696E672022302D312056222028256C642D256C64292E20546F67676C65202743616C6962726174652720666F722066756C6C2072616E7C
:404D000067652E00035B0040244300404000405100401000605100401000C05100401000F0510040100000000140001000140140000800400140000A004C01400002005008
:404D4000014020000001000000040000001030313233343536373839414243444546004300494E4600696E66004E414E006E616E00300030313233343536373839414243A1
:404D8000444546003031323334353637383961626364656600496E66696E697479004E614E00504F53495800000000000000F03F00000000000024400000000000005940BC
:404DC0000000000000408F40000000000088C34000000000006AF8400000000080842E4100000000D01263410000000084D797410000000065CDCD41000000205FA00242A8
:404E0000000000E876483742000000A2941A6D42000040E59C30A2420000901EC4BCD64200003426F56B0C430080E03779C3414300A0D8855734764300C84E676DC1AB43FF
:404E4000003D9160E458E143408CB5781DAF154450EFE2D6E41A4B4492D54D06CFF08044F64AE1C7022DB544B49DD9794378EA4405000000190000007D000000000000008E
:404E80000080E03779C34143176E05B5B5B89346F5F93FE9034F384D321D30F94877825A3CBF737FDD4F1575232D302B2000686C4C0065666745464700000000F8B500BF18
:404EC000F8BC08BC9E4670474D0000003D0C0000F8B500BFF8BC08BC9E46704729000000F04E0000C880FF1FC80000005000000000000000E081FF1F01FF00000000E02E18
:404F0000C05D00001800000000366E0111500040020000000100000000000000000000000000000000000000000000000000000000000000000000005F4D00000000000047
:404F40000000000000000000000000000000000000000000000000000000000000000000000000000000000000000000000000000000000000000000F080FF1FC34C000094
:404F8000AD4E0000AD4E0000AD4E0000AD4E0000AD4E0000AD4E0000AD4E0000AD4E0000AD4E0000FFFFFFFFFFFFFFFFFFFFFFFFFFFF00000000000000000000000000002C
:404FC00000000000000000000000000000000000000000000000000000000000000000000000000000000000000000000000000000000000000000000000000000000000B1
:405000000000000000000000000000000000000000000000000000000000000000000000000000000000000000000000000000000000000000000000000000000000000070
:405040000000000000000000000000000000000000000000000000000000000000000000000000000000000000000000000000000000000000000000000000000000000030
:4050800000000000000000000000000000000000000000000000000000000000000000000000000000000000000000000000000000000000000000000000000000000000F0
:020000040003F7
:0200000480007A
:40000000015200400502014003030140010501400107014001090140010B014001150140011B01400240014005410140014201400243014002440140014501400646014013
:40004000024701400248014001490140014C0140024D01400151014001A038083E0458045B045F011E206F018701B210EE04EE04E880EC10EC103320CC1063048704A720CD
:40008000D840E240A720AB20EE207C20DE019C201B044508B020C608D001E801A508AB042510C820B510A508B508EC080003000015A0A000A0004A00000B0B000000000077
:4000C000020000020200000000000000010000000000020015AAAA00000000000E0018018600180100000000000000000000000000000000000000000000000000000000C8
:4001000000000000000000000000000000000000000000000000000000000000000000000000000000000000000000000000000000000000000000000000000000000000BF
:40014000000000000000000000000000000000000000000000000000000000000000000000000000000000000000000000000000000000000000000000000000000000007F
:40018000000000000000000000000000000000000000000000000000000000000000000000000000000000000000000000000000000000000000000000000000000000003F
:4001C00000000000000000000000000000000000000000000000000000000000000000000000000000000000000000000000000000000000000000000000000000000000FF
:0200000490006A
:0400000000004005B7
:0200000490105A
:04000000BC90ACAF55
:0200000490303A
:02000000169454
:0200000490402A
:4000000000000000000000000000000000000000000000000000000000000000000000000000000000000000000000000000000000000000000000000000000000000000C0
:400040000000000000000000000000000000000000000000000000000000000000000000000000000000000000000000000000000000000000000000000000000000000080
:400080000000000000000000000000000000000000000000000000000000000000000000000000000000000000000000000000000000000000000000000000000000000040
:4000C0000000000000000000000000000000000000000000000000000000000000000000000000000000000000000000000000000000000000000000000000000000000000
:0200000490501A
:0C00000000012E12306900012E3146FD77
:00000001FF