:400000000080002011000000290800002908000008B5044B1A6803F53F5302331A6000F00BFC00BFFA46004010B5054C237833B9044B13B10448AFF300800123237010BD0E
:400040008881FF1F000000008C200000084B10B51BB108480849AFF300800848036803B910BD074B002BFBD0BDE81040184700BF000000008C2000008C81FF1F0881FF1FE9
:4000800000000000000000002DE9F04F89B062B6012001F0ABFB002001F086F9002001F08FF9002001F02AF8002001F06FF901F0E3F802E0322001F03DFB01F08FFB012840
:4000C000F8D00023019399461C464FF47A6207921F4604939B4603939A46069305931DE1002001F06DF9012001F05EF901F06EFB012806D101F0CEF801F0D4F8B04200DA8C
:400100000646C6F5FA6303EBD3735C10C4F5FA6400F06CFF00F07EFF00F0DAFF00F56B720592A0F56B73069301F0D0FCD0A3D3E9002301F05BFE0022D14B01F02DFD0022CA
:40014000D04B01F075FB8046894601F037FF054601F0BCFC02460B464046494601F068FBC5A3D3E9002301F017FD0022C64B01F061FB01F023FFCB2809DDA5F1040805F101
:40018000050B0635A0F1CC0AA0F1320716E0A0F13403972B09D8A5F1050805F1050B063500F1330AA0F1320708E0A5F1050805F1040B053500F1330A00F1CD07C8EB05030E
:4001C00001934FF0010901F0E7F8012888D0CDF80C80CDF810A0AA460796002001F0E4F800F018FF83E0002001F0EAF8012001F0CDF801F045F901F0B7F801F04BF8DDF885
:400200000C80002302931E466FE05FFA88F001F0FFF8B9F1010F1BD114E0E8B201F06CF801F040F8A04200DA012601F03BF8A04203DD16B14FF49675A846002001F090FAF5
:40024000013500E0049DFF2DE7DD09F101093CE0019B994534DAB9F1010F16DC002530E0E8B201F049F801F01DF8A04200DA012601F018F8A04203DD16B14FF49675A846D3
:40028000002001F06DFA013500E00025FF2DE7DD09F1010919E0E8B201F02EF801F002F8A04200DA012600F0FDFFA04203DD16B14FF49675A846002001F052FA013500E0FB
:4002C0000025BD42E7DB4FF00109D8450BD1039B03F1FF38029B0133142B03D1002000F00DFF00E0029308F10108D0458DDB00F0B9FE059B98423FF776AF00F0B3FE069B5B
:400300009842FFF670AF002001F040F8012001F057F8002000F0F2FE4FF0010901F0C2F8012840F03E815546DDF80C80DDF810A0079E48E7002001F043F8012001F034F83A
:4003400001F044FA012806D100F0A4FF00F0AAFF404500DA8046C8F5FA6303EBD3735C10C4F5FA6400F042FE00F054FE00F0B0FE00F5AB720592A0F5AB73069301F0A6FB95
:400380003BA3D3E9002301F031FD00223C4B01F003FC00223D4B01F04BFA06460F4601F00DFE824601F092FB02460B463046394601F03EFA30A3D3E9002301F0EDFB0022A1
:4003C000314B01F037FA01F0F9FDBD280BDDAAF102050AF1030B0AF1040AA0F1BE030493A0F140071AE0A0F142037B2B0BD8AAF103050AF1030B0AF1040A00F1410304935C
:40040000A0F140070AE0AAF103050AF1020B0AF1040A00F14103049300F1BF07C5EB0A064FF0010903E0039DDDF81C80019E00F0B3FF01283FF47EAF0395CDF81C8001966C
:40044000002000F0B1FF00F0E5FD93E0002000F0B7FF012000F09AFF01F012F800F084FF00F018FFDDF80C80002302931E467FE000000000602BEA400000000000E06F4072
:4004800000007040000028400000E03F000026405FFA88F000F0BCFFB9F1010F1BD114E0E8B200F029FF00F0FDFEA04200DA012600F0F8FEA04203DD16B14FF49675A8465E
:4004C000012001F04DF9013500E0049DFF2DE7DD09F101093CE0019B994534DAB9F1010F16DC002530E0E8B200F006FF00F0DAFEA04200DA012600F0D5FEA04203DD16B1EE
:400500004FF49675A846012001F02AF9013500E00025FF2DE7DD09F1010919E0E8B200F0EBFE00F0BFFEA04200DA012600F0BAFEA04203DD16B14FF49675A846012001F0A0
:400540000FF9013500E00025BD42E7DB4FF00109D8450BD1039B03F1FF38029B0133142B03D1012000F0CAFD00E0029308F10108D0458DDB00F076FD059B98423FF766AF94
:4005800000F070FD069B9842FFF660AF002000F0FDFE012000F014FF002000F0AFFD4FF0010900F087FF01283FF43DAF28E1002000F006FF012000F0F7FE01F007F901282F
:4005C00006D100F067FE00F06DFEB04200DA0646C6F5FA6303EBD3735C10C4F5FA6400F005FD00F017FD00F073FD00F20D120592A0F20D13069301F069FA85A3D3E90023E9
:4006000001F0F4FB0022864B01F0C6FA8046894601F0D4FC824601F059FA02460B464046494601F005F97CA3D3E9002301F0B4FA00227C4B01F0FEF801F0C0FCA0280ADD6E
:400640000AF1FF350AF1020B0AF1030AA0F15F08A0F19F0717E0A0F15F03402B09D80AF1FF350AF1010B0AF1020A984600F1600709E0AAF102050AF1010B0AF1020A00F1D9
:40068000A00800F15F07C5EB0A090123029307E0039DDDF81080079ECDF80890DDF8049000F07AFE012882D00395CDF810800796CDF80490DDF80890002000F075FE00F0C2
:4006C000A9FC86E0002000F07BFE012000F05EFE00F0D6FE00F048FE00F0DCFDDDF80C80002302931E4672E05FFA88F000F090FEB9F1010F1BD114E0E8B200F0FDFD00F00A
:40070000D1FDA04200DA012600F0CCFDA04203DD16B14FF49675A846012001F021F8013500E0049DFF2DE7DD09F101093CE0019B994534DAB9F1010F16DC002530E0E8B295
:4007400000F0DAFD00F0AEFDA04200DA012600F0A9FDA04203DD16B14FF49675A846012000F0FEFF013500E00025FF2DE7DD09F1010919E0E8B200F0BFFD00F093FDA042FB
:4007800000DA012600F08EFDA04203DD16B14FF49675A846012000F0E3FF013500E00025BD42E7DB4FF00109D8450BD1039B03F1FF38029B0133142B03D1012000F09EFC6F
:4007C00000E00293012000F0CBFF08F10108D0458ADB00F047FC059B98423FF773AF00F041FC069B9842FFF66DAF002000F0CEFD012000F0E5FD002000F080FC4FF00109CC
:4008000000F060FE01283FF443AF87E5AFF3008000000000602BEA400000000000E06F40000070400000E03F08B501F0EFFB03680C2B00D1FEE7FEE708B5104E104D16E038
:4008400029686B68AC68002204E051F8040B43F8040B0432A242F8D1E868002203E0002143F8041B04328242F9D11035013E002EE6D101F0D1FBFFF707FCFEE701000000DC
:40088000E820000008B5124A124B1A60124A136843F40073136000230AE0032B03D80F4A52F8231000E00E490E4A42F8231001332F2BF2D90C4B1A780C4B1A70094A0C4B97
:4008C0001A6000F025F900220A4B1A6008BD00BF0004FA050CED00E014ED00E000000000290800000080FF1FBC7600400481FF1F08ED00E00081FF1FFEE700BFF0B400227C
:40090000174611E050F82760F3B226F0FF0608E001EB420511F812406D78A5550132013BDBB2002BF4D10137152FEBD9F0BC704708B50A46002101F0A0FB08BDF8B51E4B61
:400940001B78DBB21D4E3478E4B21D4F3D78EDB203F007011B4A11701B090132137044F00303337045F003033B708422164B1A7044F208021F331A808023144A1370052105
:4009800002F22F121170012211490A7013310A70104A13704022104B1A70202203331A70C02235331A700A2000F0DAFE3D70347044220A4B1A70F8BDCF010049F8460040FE
:4009C000F94600406E5800403D51004001590040885A0040005B0040205B00407658004008B501F03FFB08BD38B500242F4B1C80502202331A700E2202331A801822023311
:400A00001A702B482B490422FFF7EAFF02222A4B1A7008224FF040231A70032103F500731970264B1B78DBB225490B70254B1A8041F25122023B1A8019250CE0224B1B7884
:400A400003F0010343EA440404F003044FF4F07000F0DAFE013D0DB1032CEFD115B90320FFF74AFF194B4FF480721A8007221A70002217490A704820023108701A700222E6
:400A8000033B1A7004220A331A70124A137843F003031370013A137843F001031370013A137843F08003137038BD00BF8040004000410040180100480043004008010049F4
:400AC000A146004022420040254200400440004006400040A2430040012807D8044B53F820201844017A13780B431370704700BF90200000012808D8044B53F820201844DB
:400B0000017A137823EA0103137070479020000070B572B6374A137843F00403137000240AE0354963001A1952000A44D068118AFFF7FEFE0134E4B2052CF2D94FF0904041
:400B40002E49FFF7DBFE0A222D4B1A702D4A137843F0020313701032137843F002031370294C237843F040032370A2F58632513A137843F010031370244825490822FFF77B
:400B80002FFF244824490822FFF72AFF234824490822FFF725FF234823490822FFF720FF224823490822FFF71BFF224822490822FFF716FF214822490822FFF711FF21482C
:400BC00021490822FFF70CFF204A137843F0080313701F4E01253570FFF706FF812333701C4B1D70FFF7AAFE1B4821460E22FFF7F7FE70BDE84600409020000058000048CE
:400C00008358004003500140A043004002510040D8000048C2510040E000004812510040E800004822510040F000004832510040F8000048425100400001004852510040F4
:400C4000080100486251004010010048224300400048004004000840B043004010B59DF80840012C4AD10138092826D8DFE800F00525250525250D15251D0F2B02D92148A2
:400C800000781BE02048007818E00F2B02D91F48007813E01E48007810E00F2B02D91D4800780BE01C48007808E00F2B02D91B48007803E01A48007800E0002040B201EB08
:400CC000401101FB02F1C90B8AB20D2B0BD8C3F10E0289B211418AB2124901EB8401013301F8023C05E00F4B03EB84030F2103F8021C013C0B4B23F8242010BD002000F0F9
:400D000017FD10BD180100491C010049190100491D0100491A0100491E0100491B0100491F010049A481FF1FF8B5074600F074FD06460D4D2B7843F003032B700B4C2378F9
:400D400043F0030323700A4B1F70032000F008FD2B7803F0FC032B70237803F0FC032370304600F05DFDF8BDF8460040F94600409258004038B50022304B1A7101285CD154
:400D800038222F4B1A70042202331A70062201331A70002401331C7001331C703F2201331A7002331C7001331C7001331C7001250A331D70502203F527631A70072201333B
:400DC0001A70292201331A7001331C70552203331A705A2201331A7001331C7002331C7001331C700A2201331A70432201331A704420FFF799FF5822124B1A7001331C70CE
:400E0000052205331A70022201331A7001331C7001331C70204600F06DFB42F6AB120A4B1A602020294600F089FB8620294600F009FC1D20054900F09DFC38BDA481FF1F6C
:400E4000004E004094580040B481FF1FF9100000F0B583B0284D01272F70284E00247471102000F059FB102000F0DAFB1D20072100F094FC0422224B1A7001331C70073364
:400E80001C70204A137843F0180313701E4B1C7003F2F5231C7001331C700A22A3F209331A7001331C7002331C705B2205331A705E2201331A7004331C701422A3F68C23CC
:400EC0001A700097032047F602714FF400421023FFF7C4FE2B7806EB830313F8022C0B4B1A702B78013B36F82320094B1A802878FFF740FF03B0F0BD0C81FF1FA481FF1FFA
:400F000096580040075B0040935800400E4E00400C4E004070B500F07FFC06462A4B1B782A4B1A7842F001021A701A7842F010021A7010331A7842F001021A701A7842F01E
:400F400010021A70224D2B7843F002032B70214C237843F0020323701F4A137843F003031370032000F0FCFB2B7803F0FD032B70237803F0FD032370184A137843F00603E8
:400F800013707A22164B1A70164A137843F0010313701032137843F0010313700F3A137843F0010313701032137843F0010313704FF000530C4A1360A2F5C07213603046D9
:400FC00000F02EFC70BD00BF0C81FF1FAA430040F8460040F9460040915800407758004082580040A143004080E200E008B5084B9B794BB9064BDB7913F0FF0F01D1FFF7B8
:4010000027FF0122024B9A71FFF784FF08BD00BFA481FF1F024A137843F0010313707047004E0040024A137803F0FE0313707047004E0040094B1B7913F0FF0F03D0074B48
:401040005B79DBB203E0064B1B7803F00103012B01D00028EED01846704700BFA481FF1F014E0040154B1B7803F00303012B07D8134B1888023B1B889BB243EA004013E046
:40108000022B0AD10E4B1888023B1B7843EA00430C4A107843EA002006E00B4B188883B2074A108843EA0040084B1B7913F0FF0F02D00022054B5A71704700BF144E00403E
:4010C000124E0040114E0040104E0040A481FF1F10B5084A137843F004031370FFF79AFF0020FFF7A7FFFFF7BDFF0446FFF79AFF204610BD014E0040704700BF044A13788A
:4011000003F0BF03800100F040001843107070470051004008B50A280FD00C2802D0082806D102E04FF4805209E04FF4807206E0002000F0FDFA002201E04FF48062002100
:40114000084B198042F2107303FB02F313F5806301D503F2FF73DB12034A13600022034B1A8008BDBA81FF1FC081FF1FB881FF1F10B500F051FB04461E4A137843F00103B1
:4011800013701032137843F001031370193A137843F0020313701032137843F00203137002F5AA521132137843F0030313701822114B1A70013B1A7842F040021A701A7809
:4011C00002F0FC021A70C822053B1A700222A3F597530C3B1A70094A137843F0080313700A2000F0BDFA0122054B1A60204600F017FB10BDAB43004006590040275B004029
:4012000080E200E010B504460A280DD00C2802D0082804D101E0C22207E0422205E0002000F086FAC22200E08222034B1A702046FFF770FF10BD00BF0259004008B510209F
:4012400000F06CFA0020072100F0A8FA0020074900F090FA064A137843F0060313700C20FFF7D0FF0022034B1A8008BDBD12000001590040BC81FF1F08B5054B1B7823B9BA
:40128000FFF7DCFF0122024B1A70FFF771FF08BDAC81FF1F024A137843F001031370704700590040034B1B88034A1088181A00B2704700BFA05B0040B881FF1F704700BFD4
:4012C000054A137843F0080313701032137843F008031370704700BFA8430040054B1A7802F0FD021A701A7800F0020010431870704700BF2C580040014B1870704700BFE4
:40130000835B0040064B1B78C3F3810303F19243063393F83831DBB2024A1370704700BF2C5800400B46004008B5064B1A7802F0F3021A701A7800F00C0010431870FFF7E4
:40134000E1FF08BD2C58004010B50024054B1C7001331C700420FFF7E7FF2046FFF7BEFF10BD00BF2C58004008B5074B1B7823B9FFF7EAFF0122044B1A70FFF7A1FF6420A3
:40138000FFF7BAFF08BD00BFAD81FF1F014B1870704700BF76640040024B1878C0F38000704700BF41510040044A137803F07F03C001C0B203431370704700BF00510040A1
:4013C000044A137803F07F03C001C0B203431370704700BF40510040054A137843F0020313701032137843F002031370704700BFA8430040054B1A7802F0FD021A701A78AF
:4014000000F0020010431870704700BF24580040014B1870704700BF815B0040064B1B78C3F3810303F19243063393F83031DBB2024A1370704700BF24580040094600401E
:4014400008B5064B1A7802F0F3021A701A7800F00C0010431870FFF7E1FF08BD2458004010B50024054B1C7001331C700420FFF7E7FF2046FFF7BEFF10BD00BF24580040B5
:4014800008B5074B1B7823B9FFF7EAFF0122044B1A70FFF7A1FF6420FFF7BAFF08BD00BFAE81FF1F024B187800F00100704700BF01510040024B1878C0F34000704700BF1D
:4014C00001510040024B1878C0F3C000704700BF0151004010B5002404E02046FFF70AFB0134E4B2012CF8D9FF22014B1A7010BD0D81FF1F10B50446FFF7ECFF2046FFF74F
:40150000EBFA014B1C7010BD0D81FF1F014B188880B2704780400040034B1A7800F0F80010431870704700BF82400040024B187800F00700704700BF8240004070B50546C9
:401540000E46FFF7F3FF0446FFF7E0FF854256D02B4B1B7803F0010294B900B185B938B9284B1D80284A137803F0BF03137070BD254A137843F040031370224B1D8070BD5B
:4015800022B3002321490B7001240F310C7004310B700C390B7803F07F030B701A4B1B7813F0080F00D08DB9194B18800721013B1970164B1B7813F0010FFAD110490B7846
:4015C00003F0FE030B700021104B19700C4B1B7813F0010F0DD00E4B1D800EB1032200E001220A4B1A70094B1B7813F0010FFAD170BD044B1D8002490B7813430B7070BD37
:40160000A243004080400040824000400140004002400040014B188880B2704700410040034B1A7800F0F80010431870704700BF02410040024B187800F00700704700BF44
:401640000241004070B505460E46FFF7F3FF0446FFF7E0FF854256D02B4B1B7803F0010294B900B185B938B9284B1D80284A137803F0BF03137070BD254A137843F0400321
:401680001370224B1D8070BD22B3002321490B70012413310C7004390B7008390B7803F07F030B701A4B1B7813F0080F00D08DB9194B18800721013B1970164B1B7813F03A
:4016C000010FFAD110490B7803F0FE030B700021104B19700C4B1B7813F0010F0DD00E4B1D800EB1032200E001220A4B1A70094B1B7813F0010FFAD170BD044B1D80024900
:401700000B7813430B7070BDA143004000410040024100400140004002400040034B1A7800F0F80010431870704700BF8640004001BE704710B5044605E0084B186800F0B1
:4017400063F8A4F50044B4F5004FF6D8034B586800FB04F000F058F810BD00BF1081FF1F08B5034B1B7A03FB00F000F04DF808BD1081FF1F70B504460E46074B1D681F28DB
:4017800002D90020FFF7D4FF04F01F04103455F8240045F8246070BD08ED00E038B504460D46072902D90020FFF7C2FF1F2C02D90020FFF7BDFF04F01F0000F1604000F5D9
:4017C00064406D01EDB2057038BD00BF024B187800F00100704700BF51510040024B1878C0F34000704700BF21510040044A137803F07F03C001C0B203431370704700BF31
:4018000060510040000000000230800803D000BF01380046FCD17047EFF3108072B6704780F31088704700BF81F0004102E000BF83F0004330B54FEA41044FEA430594EA2B
:40184000050F08BF90EA020F1FBF54EA000C55EA020C7FEA645C7FEA655C00F0E2804FEA5454D4EB5555B8BF6D420CDD2C4480EA020281EA030382EA000083EA010180EAFB
:40188000020281EA0303362D88BF30BD11F0004F4FEA01314FF4801C4CEA113102D0404261EB410113F0004F4FEA03334CEA133302D0524263EB430394EA050F00F0A78048
:4018C000A4F10104D5F1200E0DDB02FA0EFC22FA05F2801841F1000103FA0EF2801843FA05F359410EE0A5F120050EF1200E012A03FA0EFC28BF4CF0020C43FA05F3C018E4
:4019000051EBE37101F0004507D54FF0000EDCF1000C7EEB00006EEB0101B1F5801F1BD3B1F5001F0CD349085FEA30004FEA3C0C04F101044FEA445212F5800F80F09A8010
:40194000BCF1004F08BF5FEA500C50F1000041EB045141EA050130BD5FEA4C0C404141EB010111F4801FA4F10104E9D191F0000F04BF01460020B1FA81F308BF2033A3F150
:401980000B03B3F120020CDA0C3208DD02F1140CC2F10C0201FA0CF021FA02F10CE002F11402D8BFC2F1200C01FA02F120FA0CFCDCBF41EA0C019040E41AA2BF01EB0451B3
:4019C000294330BD6FEA04041F3C1CDA0C340EDC04F11404C4F1200220FA04F001FA02F340EA030021FA04F345EA030130BDC4F10C04C4F1200220FA02F001FA04F340EAAD
:401A00000300294630BD21FA04F0294630BD94F0000F83F4801306BF81F480110134013D4EE77FEA645C18BF7FEA655C29D094EA050F08BF90EA020F05D054EA000C04BFE3
:401A40001946104630BD91EA030F1EBF0021002030BD5FEA545C05D14000494128BF41F0004130BD14F580043CBF01F5801130BD01F0004545F0FE4141F470014FF00000C2
:401A800030BD7FEA645C1ABF194610467FEA655C1CBF0B46024650EA013406BF52EA033591EA030F41F4002130BD00BF90F0000F04BF0021704730B54FF4806404F132044C
:401AC0004FF000054FF0000150E700BF90F0000F04BF0021704730B54FF4806404F1320410F0004548BF40424FF000013EE700BF42004FEAE2014FEA31014FEA02701FBFC7
:401B000012F07F4393F07F4F81F06051704792F0000F14BF93F07F4F704730B54FF4607401F0004521F0004120E700BF50EA010208BF704730B54FF000050AE050EA0102F6
:401B400008BF704730B511F0004502D5404261EB41014FF4806404F132045FEA915C3FF4DCAE4FF003025FEADC0C18BF03325FEADC0C18BF033202EBDC02C2F1200300FA37
:401B800003FC20FA02F001FA03FE40EA0E0021FA02F11444C1E600BF70B54FF0FF0C4CF4E06C1CEA11541DBF1CEA135594EA0C0F95EA0C0F00F0DEF82C4481EA030621EA82
:401BC0004C5123EA4C5350EA013518BF52EA033541F4801143F4801338D0A0FB02CE4FF00005E1FB02E506F00042E0FB03E54FF00006E1FB03569CF0000F18BF4EF0010EA3
:401C0000A4F1FF04B6F5007F64F5407404D25FEA4E0E6D4146EB060642EAC62141EA55514FEAC52040EA5E504FEACE2EB4F1FD0C88BFBCF5E06F1ED8BEF1004F08BF5FEA67
:401C4000500E50F1000041EB045170BD06F0004646EA010140EA020081EA0301B4EB5C04C2BFD4EB0C0541EA045170BD41F480114FF0000E013C00F3AB8014F1360FDEBFBC
:401C8000002001F0004170BDC4F10004203C35DA0C341BDC04F11404C4F1200500FA05F320FA04F001FA05F240EA020001F0004221F0004110EBD37021FA04F642EB060139
:401CC0005EEA430E08BF20EAD37070BDC4F10C04C4F1200500FA04F320FA05F001FA04F240EA020001F0004110EBD37041F100015EEA430E08BF20EAD37070BDC4F12005F7
:401D000000FA05F24EEA020E20FA04F301FA05F243EA020321FA04F001F0004121FA04F220EA020000EBD3705EEA430E08BF20EAD37070BD94F0000F0FD101F000464000E5
:401D400041EB010111F4801F08BF013CF7D041EA060195F0000F18BF704703F00046520043EB030313F4801F08BF013DF7D043EA0603704794EA0C0F0CEA135518BF95EA07
:401D80000C0F0CD050EA410618BF52EA4306D1D181EA030101F000414FF0000070BD50EA410606BF1046194652EA430619D094EA0C0F02D150EA013613D195EA0C0F05D106
:401DC00052EA03361CBF104619460AD181EA030101F0004141F0FE4141F470014FF0000070BD41F0FE4141F4780170BD70B54FF0FF0C4CF4E06C1CEA11541DBF1CEA1355E5
:401E000094EA0C0F95EA0C0F00F0A7F8A4EB050481EA030E52EA03354FEA013100F088804FEA03334FF0805545EA131343EA12634FEA022245EA111545EA10654FEA0026C6
:401E40000EF000419D4208BF964244F1FD0404F5407402D25B084FEA3202B61A65EB03055B084FEA32024FF480104FF4002CB6EB020E75EB030E22BFB61A754640EA0C0020
:401E80005B084FEA3202B6EB020E75EB030E22BFB61A754640EA5C005B084FEA3202B6EB020E75EB030E22BFB61A754640EA9C005B084FEA3202B6EB020E75EB030E22BF47
:401EC000B61A754640EADC0055EA060E18D04FEA051545EA16754FEA06164FEAC30343EA52734FEAC2025FEA1C1CC0D111F4801F0BD141EA00014FF000004FF0004CB6E7A1
:401F000011F4801F04BF01430020B4F1FD0C88BFBCF5E06F3FF6AFAEB5EB030C04BFB6EB020C5FEA500C50F1000041EB045170BD0EF0004E4EEA113114EB5C04C2BFD4EB35
:401F40000C0541EA045170BD41F480114FF0000E013C90E645EA060E8DE60CEA135594EA0C0F08BF95EA0C0F3FF43BAF94EA0C0F0AD150EA01347FF434AF95EA0C0F7FF46C
:401F800025AF104619462CE795EA0C0F06D152EA03353FF4FDAE1046194622E750EA410618BF52EA43067FF4C5AE50EA41047FF40DAF52EA43057FF4EBAE12E74FEA41028E
:401FC00012F5001215D211D56FF47873B3EB625212D94FEAC12343F0004343EA505311F0004F23FA02F018BF404270474FF00000704750EA013005D111F0004008BF6FF000
:40200000004070474FF00000704700BF014B1868704700BF8081FF1F0E4B70B51E460E4C0025E41AA410A54204D056F8253098470135F8E700F046F8084B094C1E46E41AF6
:40204000A4100025A54204D056F8253098470135F8E770BDD0200000D0200000D0200000D820000010B5431E0A44914204D011F8014B03F8014FF8E710BD03460244934275
:4020800002D003F8011BFAE77047000000000000035B00402443004040000000F0510040100000000140001000140140000800400140000A004C0140000200500140200010
:4020C00043000000F8B500BFF8BC08BC9E4670474D00000085080000F8B500BFF8BC08BC9E46704729000000F82000000881FF1F80000000400000000000000001FF00001D
:402100000000E02EC05D00001800000000366E010000000000000000000000000000000000000000000000000000000000000000C0200000000000000000000000000000D7
:402140000000000000000000000000000000000000000000000000000000000000000000000000000000000000000000000000002081FF1F000000000000000000000000A0
:40218000000000000000000000000000000000000000000000000000000000000000000000000000000000000000000000000000000000000000000000000000000000001F
:4021C00000000000000000000000000000000000000000000000000000000000000000000000000000000000000000000000000000000000000000000000000000000000DF
:40220000000000000000000000000000000000000000000000000000000000000000000000000000000000000000000000000000000000000000000000000000000000009E
:40224000000000000000000000000000000000000000000000000000000000000000000000000000000000000000000000000000000000000000000000000000000000005E
:020000040003F7
:0200000480007A
:4000000003520040015B0040050601400607014001090140011501400117014001190140011B0140044001400241014004420140074301400244014001450140054601408D
:40004000054701400348014002490140044C0140034D01400151014020402140610A278438083E0458045B045F011E206E806F0186408701EE04EE04EC30B210E880EC3082
:4000800033206704CC10D8809704A72053089704A720D420870C9704A708AB20E240E640EE207C20DE019C201B0445089C20C608D00144019C20A508AB04D0042080251039
:4000C000C860B040B5109C01A508B020E801B001B508EC0C000300000BC0C00000000000000A0A000A000000000B0B00000000000200000000000000000000000000840072
:4001000004C0C00040000000010000000000480000808000000000008600180100000000000000000000000000000000000000000000000000000000000000000000000013
:40014000000000000000000000000000000000000000000000000000000000000000000000000000000000000000000000000000000000000000000000000000000000007F
:40018000000000000000000000000000000000000000000000000000000000000000000000000000000000000000000000000000000000000000000000000000000000003F
:4001C00000000000000000000000000000000000000000000000000000000000000000000000000000000000000000000000000000000000000000000000000000000000FF
:4002000000000000000000000000000000000000000000000000000000000000000000000000000000000000000000000000000000000000000000000000000000000000BE
:0200000490006A
:0400000000004005B7
:0200000490105A
:04000000BC90ACAF55
:0200000490303A
:02000000AE242C
:0200000490402A
:4000000000000000000000000000000000000000000000000000000000000000000000000000000000000000000000000000000000000000000000000000000000000000C0
:400040000000000000000000000000000000000000000000000000000000000000000000000000000000000000000000000000000000000000000000000000000000000080
:400080000000000000000000000000000000000000000000000000000000000000000000000000000000000000000000000000000000000000000000000000000000000040
:4000C0000000000000000000000000000000000000000000000000000000000000000000000000000000000000000000000000000000000000000000000000000000000000
:0200000490501A
:0C00000000012E12306900012E1EDE8D62
:00000001FF